{
  "contractName": "ContractManager",
  "abi": [
    {
      "constant": true,
      "inputs": [],
      "name": "database",
      "outputs": [
        {
          "name": "",
          "type": "address"
        }
      ],
      "payable": false,
      "stateMutability": "view",
      "type": "function"
    },
    {
      "inputs": [
        {
          "name": "_database",
          "type": "address"
        }
      ],
      "payable": false,
      "stateMutability": "nonpayable",
      "type": "constructor"
    },
    {
      "anonymous": false,
      "inputs": [
        {
          "indexed": false,
          "name": "_contractAddress",
          "type": "address"
        },
        {
          "indexed": false,
          "name": "_name",
          "type": "string"
        },
        {
          "indexed": false,
          "name": "_blockNumber",
          "type": "uint256"
        }
      ],
      "name": "LogContractAdded",
      "type": "event"
    },
    {
      "anonymous": false,
      "inputs": [
        {
          "indexed": false,
          "name": "contractToDelete",
          "type": "address"
        },
        {
          "indexed": false,
          "name": "_name",
          "type": "string"
        },
        {
          "indexed": false,
          "name": "_blockNumber",
          "type": "uint256"
        }
      ],
      "name": "LogContractRemoved",
      "type": "event"
    },
    {
      "anonymous": false,
      "inputs": [
        {
          "indexed": false,
          "name": "oldAddress",
          "type": "address"
        },
        {
          "indexed": false,
          "name": "_name",
          "type": "string"
        },
        {
          "indexed": false,
          "name": "_blockNumber",
          "type": "uint256"
        }
      ],
      "name": "LogContractUpdated",
      "type": "event"
    },
    {
      "anonymous": false,
      "inputs": [
        {
          "indexed": false,
          "name": "_contractAddress",
          "type": "address"
        },
        {
          "indexed": false,
          "name": "_name",
          "type": "string"
        },
        {
          "indexed": false,
          "name": "_blockNumber",
          "type": "uint256"
        }
      ],
      "name": "LogNewContractLocation",
      "type": "event"
    },
    {
      "anonymous": false,
      "inputs": [
        {
          "indexed": true,
          "name": "_user",
          "type": "address"
        },
        {
          "indexed": false,
          "name": "_currentStateAcceptance",
          "type": "bool"
        },
        {
          "indexed": false,
          "name": "_ignoreStateChanges",
          "type": "bool"
        }
      ],
      "name": "LogContractStatePreferenceChanged",
      "type": "event"
    },
    {
      "constant": false,
      "inputs": [
        {
          "name": "_name",
          "type": "string"
        },
        {
          "name": "_contractAddress",
          "type": "address"
        }
      ],
      "name": "addContract",
      "outputs": [],
      "payable": false,
      "stateMutability": "nonpayable",
      "type": "function"
    },
    {
      "constant": false,
      "inputs": [
        {
          "name": "_name",
          "type": "string"
        }
      ],
      "name": "removeContract",
      "outputs": [],
      "payable": false,
      "stateMutability": "nonpayable",
      "type": "function"
    },
    {
      "constant": false,
      "inputs": [
        {
          "name": "_name",
          "type": "string"
        },
        {
          "name": "_newContractAddress",
          "type": "address"
        }
      ],
      "name": "updateContract",
      "outputs": [],
      "payable": false,
      "stateMutability": "nonpayable",
      "type": "function"
    },
    {
      "constant": false,
      "inputs": [
        {
          "name": "_acceptCurrentState",
          "type": "bool"
        },
        {
          "name": "_ignoreStateChanges",
          "type": "bool"
        }
      ],
      "name": "setContractStatePreferences",
      "outputs": [
        {
          "name": "",
          "type": "bool"
        }
      ],
      "payable": false,
      "stateMutability": "nonpayable",
      "type": "function"
    }
  ],
  "bytecode": "0x608060405234801561001057600080fd5b50604051602080612f6583398101806040528101908080519060200190929190505050806000806101000a81548173ffffffffffffffffffffffffffffffffffffffff021916908373ffffffffffffffffffffffffffffffffffffffff16021790555050612ee2806100836000396000f30060806040526004361061006d576000357c0100000000000000000000000000000000000000000000000000000000900463ffffffff168063697a60b314610072578063713b563f146100cd57806397623b5814610124578063a559dea41461015f578063bf5b6016146101b2575b600080fd5b34801561007e57600080fd5b506100cb600480360381019080803590602001908201803590602001919091929391929390803573ffffffffffffffffffffffffffffffffffffffff16906020019092919050505061020d565b005b3480156100d957600080fd5b506100e2611257565b604051808273ffffffffffffffffffffffffffffffffffffffff1673ffffffffffffffffffffffffffffffffffffffff16815260200191505060405180910390f35b34801561013057600080fd5b5061015d60048036038101908080359060200190820180359060200191909192939192939050505061127c565b005b34801561016b57600080fd5b50610198600480360381019080803515159060200190929190803515159060200190929190505050611ca5565b604051808215151515815260200191505060405180910390f35b3480156101be57600080fd5b5061020b600480360381019080803590602001908201803590602001919091929391929390803573ffffffffffffffffffffffffffffffffffffffff1690602001909291905050506121af565b005b6000806000808473ffffffffffffffffffffffffffffffffffffffff16141580151561023857600080fd5b6000809054906101000a900473ffffffffffffffffffffffffffffffffffffffff1673ffffffffffffffffffffffffffffffffffffffff166304f49a3a888860405160200180807f636f6e74726163740000000000000000000000000000000000000000000000008152506008018383808284378201915050925050506040516020818303038152906040526040518082805190602001908083835b6020831015156102f957805182526020820191506020810190506020830392506102d4565b6001836020036101000a03801982511681845116808217855250505050505090500191505060405180910390206040518263ffffffff167c0100000000000000000000000000000000000000000000000000000000028152600401808260001916600019168152602001915050602060405180830381600087803b15801561038057600080fd5b505af1158015610394573d6000803e3d6000fd5b505050506040513d60208110156103aa57600080fd5b81019080805190602001909291905050506000809054906101000a900473ffffffffffffffffffffffffffffffffffffffff1673ffffffffffffffffffffffffffffffffffffffff16633b7bfda08260405160200180807f636f6e74726163740000000000000000000000000000000000000000000000008152506008018273ffffffffffffffffffffffffffffffffffffffff1673ffffffffffffffffffffffffffffffffffffffff166c010000000000000000000000000281526014019150506040516020818303038152906040526040518082805190602001908083835b6020831015156104b0578051825260208201915060208101905060208303925061048b565b6001836020036101000a03801982511681845116808217855250505050505090500191505060405180910390206040518263ffffffff167c0100000000000000000000000000000000000000000000000000000000028152600401808260001916600019168152602001915050602060405180830381600087803b15801561053757600080fd5b505af115801561054b573d6000803e3d6000fd5b505050506040513d602081101561056157600080fd5b8101908080519060200190929190505050151561057d57600080fd5b6000809054906101000a900473ffffffffffffffffffffffffffffffffffffffff1673ffffffffffffffffffffffffffffffffffffffff16633b7bfda03360405160200180807f6f776e65720000000000000000000000000000000000000000000000000000008152506005018273ffffffffffffffffffffffffffffffffffffffff1673ffffffffffffffffffffffffffffffffffffffff166c010000000000000000000000000281526014019150506040516020818303038152906040526040518082805190602001908083835b602083101515610672578051825260208201915060208101905060208303925061064d565b6001836020036101000a03801982511681845116808217855250505050505090500191505060405180910390206040518263ffffffff167c0100000000000000000000000000000000000000000000000000000000028152600401808260001916600019168152602001915050602060405180830381600087803b1580156106f957600080fd5b505af115801561070d573d6000803e3d6000fd5b505050506040513d602081101561072357600080fd5b8101908080519060200190929190505050151561073f57600080fd5b6000809054906101000a900473ffffffffffffffffffffffffffffffffffffffff1673ffffffffffffffffffffffffffffffffffffffff166304f49a3a898960405160200180807f636f6e74726163740000000000000000000000000000000000000000000000008152506008018383808284378201915050925050506040516020818303038152906040526040518082805190602001908083835b60208310151561080057805182526020820191506020810190506020830392506107db565b6001836020036101000a03801982511681845116808217855250505050505090500191505060405180910390206040518263ffffffff167c0100000000000000000000000000000000000000000000000000000000028152600401808260001916600019168152602001915050602060405180830381600087803b15801561088757600080fd5b505af115801561089b573d6000803e3d6000fd5b505050506040513d60208110156108b157600080fd5b810190808051906020019092919050505094506000809054906101000a900473ffffffffffffffffffffffffffffffffffffffff1673ffffffffffffffffffffffffffffffffffffffff1663ca446dd9898960405160200180807f636f6e74726163740000000000000000000000000000000000000000000000008152506008018383808284378201915050925050506040516020818303038152906040526040518082805190602001908083835b6020831015156109855780518252602082019150602081019050602083039250610960565b6001836020036101000a0380198251168184511680821785525050505050509050019150506040518091039020886040518363ffffffff167c01000000000000000000000000000000000000000000000000000000000281526004018083600019166000191681526020018273ffffffffffffffffffffffffffffffffffffffff1673ffffffffffffffffffffffffffffffffffffffff16815260200192505050600060405180830381600087803b158015610a4057600080fd5b505af1158015610a54573d6000803e3d6000fd5b505050506000809054906101000a900473ffffffffffffffffffffffffffffffffffffffff1673ffffffffffffffffffffffffffffffffffffffff1663abfdcced8760405160200180807f636f6e74726163740000000000000000000000000000000000000000000000008152506008018273ffffffffffffffffffffffffffffffffffffffff1673ffffffffffffffffffffffffffffffffffffffff166c010000000000000000000000000281526014019150506040516020818303038152906040526040518082805190602001908083835b602083101515610b4d5780518252602082019150602081019050602083039250610b28565b6001836020036101000a038019825116818451168082178552505050505050905001915050604051809103902060016040518363ffffffff167c01000000000000000000000000000000000000000000000000000000000281526004018083600019166000191681526020018215151515815260200192505050600060405180830381600087803b158015610be157600080fd5b505af1158015610bf5573d6000803e3d6000fd5b505050506000809054906101000a900473ffffffffffffffffffffffffffffffffffffffff1673ffffffffffffffffffffffffffffffffffffffff16632c62ff2d8660405160200180807f636f6e74726163740000000000000000000000000000000000000000000000008152506008018273ffffffffffffffffffffffffffffffffffffffff1673ffffffffffffffffffffffffffffffffffffffff166c010000000000000000000000000281526014019150506040516020818303038152906040526040518082805190602001908083835b602083101515610cee5780518252602082019150602081019050602083039250610cc9565b6001836020036101000a03801982511681845116808217855250505050505090500191505060405180910390206040518263ffffffff167c0100000000000000000000000000000000000000000000000000000000028152600401808260001916600019168152602001915050600060405180830381600087803b158015610d7557600080fd5b505af1158015610d89573d6000803e3d6000fd5b505050506000809054906101000a900473ffffffffffffffffffffffffffffffffffffffff1673ffffffffffffffffffffffffffffffffffffffff1663031578af60405160200180807f63757272656e7453746174650000000000000000000000000000000000000000815250600c0190506040516020818303038152906040526040518082805190602001908083835b602083101515610e3f5780518252602082019150602081019050602083039250610e1a565b6001836020036101000a03801982511681845116808217855250505050505090500191505060405180910390206040518263ffffffff167c0100000000000000000000000000000000000000000000000000000000028152600401808260001916600019168152602001915050602060405180830381600087803b158015610ec657600080fd5b505af1158015610eda573d6000803e3d6000fd5b505050506040513d6020811015610ef057600080fd5b8101908080519060200190929190505050935083866040516020018083600019166000191681526020018273ffffffffffffffffffffffffffffffffffffffff1673ffffffffffffffffffffffffffffffffffffffff166c01000000000000000000000000028152601401925050506040516020818303038152906040526040518082805190602001908083835b602083101515610fa35780518252602082019150602081019050602083039250610f7e565b6001836020036101000a038019825116818451168082178552505050505050905001915050604051809103902092506000809054906101000a900473ffffffffffffffffffffffffffffffffffffffff1673ffffffffffffffffffffffffffffffffffffffff16634e91db0860405160200180807f63757272656e7453746174650000000000000000000000000000000000000000815250600c0190506040516020818303038152906040526040518082805190602001908083835b602083101515611084578051825260208201915060208101905060208303925061105f565b6001836020036101000a0380198251168184511680821785525050505050509050019150506040518091039020856040518363ffffffff167c0100000000000000000000000000000000000000000000000000000000028152600401808360001916600019168152602001826000191660001916815260200192505050600060405180830381600087803b15801561111b57600080fd5b505af115801561112f573d6000803e3d6000fd5b505050507fa7dd6fc361b16d778eaba6853d25f31d1c67046cec8121af750c881ecae1288385898943604051808573ffffffffffffffffffffffffffffffffffffffff1673ffffffffffffffffffffffffffffffffffffffff16815260200180602001838152602001828103825285858281815260200192508082843782019150509550505050505060405180910390a17feb1eac76129303431e69d209def6a74da46fc9208827235c925b2d209dc3f87e86898943604051808573ffffffffffffffffffffffffffffffffffffffff1673ffffffffffffffffffffffffffffffffffffffff16815260200180602001838152602001828103825285858281815260200192508082843782019150509550505050505060405180910390a15050505050505050565b6000809054906101000a900473ffffffffffffffffffffffffffffffffffffffff1681565b60008083839050141580151561129157600080fd5b6000809054906101000a900473ffffffffffffffffffffffffffffffffffffffff1673ffffffffffffffffffffffffffffffffffffffff166304f49a3a858560405160200180807f636f6e74726163740000000000000000000000000000000000000000000000008152506008018383808284378201915050925050506040516020818303038152906040526040518082805190602001908083835b602083101515611352578051825260208201915060208101905060208303925061132d565b6001836020036101000a03801982511681845116808217855250505050505090500191505060405180910390206040518263ffffffff167c0100000000000000000000000000000000000000000000000000000000028152600401808260001916600019168152602001915050602060405180830381600087803b1580156113d957600080fd5b505af11580156113ed573d6000803e3d6000fd5b505050506040513d602081101561140357600080fd5b81019080805190602001909291905050506000809054906101000a900473ffffffffffffffffffffffffffffffffffffffff1673ffffffffffffffffffffffffffffffffffffffff16633b7bfda08260405160200180807f636f6e74726163740000000000000000000000000000000000000000000000008152506008018273ffffffffffffffffffffffffffffffffffffffff1673ffffffffffffffffffffffffffffffffffffffff166c010000000000000000000000000281526014019150506040516020818303038152906040526040518082805190602001908083835b60208310151561150957805182526020820191506020810190506020830392506114e4565b6001836020036101000a03801982511681845116808217855250505050505090500191505060405180910390206040518263ffffffff167c0100000000000000000000000000000000000000000000000000000000028152600401808260001916600019168152602001915050602060405180830381600087803b15801561159057600080fd5b505af11580156115a4573d6000803e3d6000fd5b505050506040513d60208110156115ba57600080fd5b810190808051906020019092919050505015156115d657600080fd5b6000809054906101000a900473ffffffffffffffffffffffffffffffffffffffff1673ffffffffffffffffffffffffffffffffffffffff16633b7bfda03360405160200180807f6f776e65720000000000000000000000000000000000000000000000000000008152506005018273ffffffffffffffffffffffffffffffffffffffff1673ffffffffffffffffffffffffffffffffffffffff166c010000000000000000000000000281526014019150506040516020818303038152906040526040518082805190602001908083835b6020831015156116cb57805182526020820191506020810190506020830392506116a6565b6001836020036101000a03801982511681845116808217855250505050505090500191505060405180910390206040518263ffffffff167c0100000000000000000000000000000000000000000000000000000000028152600401808260001916600019168152602001915050602060405180830381600087803b15801561175257600080fd5b505af1158015611766573d6000803e3d6000fd5b505050506040513d602081101561177c57600080fd5b8101908080519060200190929190505050151561179857600080fd5b6000809054906101000a900473ffffffffffffffffffffffffffffffffffffffff1673ffffffffffffffffffffffffffffffffffffffff166304f49a3a868660405160200180807f636f6e74726163740000000000000000000000000000000000000000000000008152506008018383808284378201915050925050506040516020818303038152906040526040518082805190602001908083835b6020831015156118595780518252602082019150602081019050602083039250611834565b6001836020036101000a03801982511681845116808217855250505050505090500191505060405180910390206040518263ffffffff167c0100000000000000000000000000000000000000000000000000000000028152600401808260001916600019168152602001915050602060405180830381600087803b1580156118e057600080fd5b505af11580156118f4573d6000803e3d6000fd5b505050506040513d602081101561190a57600080fd5b810190808051906020019092919050505092506000809054906101000a900473ffffffffffffffffffffffffffffffffffffffff1673ffffffffffffffffffffffffffffffffffffffff16632c62ff2d8460405160200180807f636f6e74726163740000000000000000000000000000000000000000000000008152506008018273ffffffffffffffffffffffffffffffffffffffff1673ffffffffffffffffffffffffffffffffffffffff166c010000000000000000000000000281526014019150506040516020818303038152906040526040518082805190602001908083835b602083101515611a1257805182526020820191506020810190506020830392506119ed565b6001836020036101000a03801982511681845116808217855250505050505090500191505060405180910390206040518263ffffffff167c0100000000000000000000000000000000000000000000000000000000028152600401808260001916600019168152602001915050600060405180830381600087803b158015611a9957600080fd5b505af1158015611aad573d6000803e3d6000fd5b505050506000809054906101000a900473ffffffffffffffffffffffffffffffffffffffff1673ffffffffffffffffffffffffffffffffffffffff16630e14a376868660405160200180807f636f6e74726163740000000000000000000000000000000000000000000000008152506008018383808284378201915050925050506040516020818303038152906040526040518082805190602001908083835b602083101515611b725780518252602082019150602081019050602083039250611b4d565b6001836020036101000a03801982511681845116808217855250505050505090500191505060405180910390206040518263ffffffff167c0100000000000000000000000000000000000000000000000000000000028152600401808260001916600019168152602001915050600060405180830381600087803b158015611bf957600080fd5b505af1158015611c0d573d6000803e3d6000fd5b505050507f72aac8395bac616262b6b467498809c06a565453df34e67f6ad56914d20a42bf83868643604051808573ffffffffffffffffffffffffffffffffffffffff1673ffffffffffffffffffffffffffffffffffffffff16815260200180602001838152602001828103825285858281815260200192508082843782019150509550505050505060405180910390a15050505050565b6000806000809054906101000a900473ffffffffffffffffffffffffffffffffffffffff1673ffffffffffffffffffffffffffffffffffffffff1663031578af60405160200180807f63757272656e7453746174650000000000000000000000000000000000000000815250600c0190506040516020818303038152906040526040518082805190602001908083835b602083101515611d5a5780518252602082019150602081019050602083039250611d35565b6001836020036101000a03801982511681845116808217855250505050505090500191505060405180910390206040518263ffffffff167c0100000000000000000000000000000000000000000000000000000000028152600401808260001916600019168152602001915050602060405180830381600087803b158015611de157600080fd5b505af1158015611df5573d6000803e3d6000fd5b505050506040513d6020811015611e0b57600080fd5b810190808051906020019092919050505090506000809054906101000a900473ffffffffffffffffffffffffffffffffffffffff1673ffffffffffffffffffffffffffffffffffffffff1663abfdcced82336040516020018083600019166000191681526020018273ffffffffffffffffffffffffffffffffffffffff1673ffffffffffffffffffffffffffffffffffffffff166c01000000000000000000000000028152601401925050506040516020818303038152906040526040518082805190602001908083835b602083101515611efb5780518252602082019150602081019050602083039250611ed6565b6001836020036101000a0380198251168184511680821785525050505050509050019150506040518091039020866040518363ffffffff167c01000000000000000000000000000000000000000000000000000000000281526004018083600019166000191681526020018215151515815260200192505050600060405180830381600087803b158015611f8e57600080fd5b505af1158015611fa2573d6000803e3d6000fd5b505050506000809054906101000a900473ffffffffffffffffffffffffffffffffffffffff1673ffffffffffffffffffffffffffffffffffffffff1663abfdcced3360405160200180807f69676e6f726553746174654368616e67657300000000000000000000000000008152506012018273ffffffffffffffffffffffffffffffffffffffff1673ffffffffffffffffffffffffffffffffffffffff166c010000000000000000000000000281526014019150506040516020818303038152906040526040518082805190602001908083835b60208310151561209b5780518252602082019150602081019050602083039250612076565b6001836020036101000a0380198251168184511680821785525050505050509050019150506040518091039020856040518363ffffffff167c01000000000000000000000000000000000000000000000000000000000281526004018083600019166000191681526020018215151515815260200192505050600060405180830381600087803b15801561212e57600080fd5b505af1158015612142573d6000803e3d6000fd5b505050503373ffffffffffffffffffffffffffffffffffffffff167f2a8e3a90deecaea9a0a281268fe581c97137089b2da8b29ef69788da110174d785856040518083151515158152602001821515151581526020019250505060405180910390a2600191505092915050565b600080600073ffffffffffffffffffffffffffffffffffffffff168373ffffffffffffffffffffffffffffffffffffffff1614158015156121ef57600080fd5b600086869050141580151561220357600080fd5b6000809054906101000a900473ffffffffffffffffffffffffffffffffffffffff1673ffffffffffffffffffffffffffffffffffffffff16633b7bfda03360405160200180807f6f776e65720000000000000000000000000000000000000000000000000000008152506005018273ffffffffffffffffffffffffffffffffffffffff1673ffffffffffffffffffffffffffffffffffffffff166c010000000000000000000000000281526014019150506040516020818303038152906040526040518082805190602001908083835b6020831015156122f857805182526020820191506020810190506020830392506122d3565b6001836020036101000a03801982511681845116808217855250505050505090500191505060405180910390206040518263ffffffff167c0100000000000000000000000000000000000000000000000000000000028152600401808260001916600019168152602001915050602060405180830381600087803b15801561237f57600080fd5b505af1158015612393573d6000803e3d6000fd5b505050506040513d60208110156123a957600080fd5b810190808051906020019092919050505015156123c557600080fd5b6000809054906101000a900473ffffffffffffffffffffffffffffffffffffffff1673ffffffffffffffffffffffffffffffffffffffff16633b7bfda08660405160200180807f636f6e74726163740000000000000000000000000000000000000000000000008152506008018273ffffffffffffffffffffffffffffffffffffffff1673ffffffffffffffffffffffffffffffffffffffff166c010000000000000000000000000281526014019150506040516020818303038152906040526040518082805190602001908083835b6020831015156124ba5780518252602082019150602081019050602083039250612495565b6001836020036101000a03801982511681845116808217855250505050505090500191505060405180910390206040518263ffffffff167c0100000000000000000000000000000000000000000000000000000000028152600401808260001916600019168152602001915050602060405180830381600087803b15801561254157600080fd5b505af1158015612555573d6000803e3d6000fd5b505050506040513d602081101561256b57600080fd5b810190808051906020019092919050505015151561258857600080fd5b600073ffffffffffffffffffffffffffffffffffffffff166000809054906101000a900473ffffffffffffffffffffffffffffffffffffffff1673ffffffffffffffffffffffffffffffffffffffff166304f49a3a898960405160200180807f636f6e74726163740000000000000000000000000000000000000000000000008152506008018383808284378201915050925050506040516020818303038152906040526040518082805190602001908083835b602083101515612661578051825260208201915060208101905060208303925061263c565b6001836020036101000a03801982511681845116808217855250505050505090500191505060405180910390206040518263ffffffff167c0100000000000000000000000000000000000000000000000000000000028152600401808260001916600019168152602001915050602060405180830381600087803b1580156126e857600080fd5b505af11580156126fc573d6000803e3d6000fd5b505050506040513d602081101561271257600080fd5b810190808051906020019092919050505073ffffffffffffffffffffffffffffffffffffffff1614151561274557600080fd5b6000809054906101000a900473ffffffffffffffffffffffffffffffffffffffff1673ffffffffffffffffffffffffffffffffffffffff1663ca446dd9888860405160200180807f636f6e74726163740000000000000000000000000000000000000000000000008152506008018383808284378201915050925050506040516020818303038152906040526040518082805190602001908083835b60208310151561280657805182526020820191506020810190506020830392506127e1565b6001836020036101000a0380198251168184511680821785525050505050509050019150506040518091039020876040518363ffffffff167c01000000000000000000000000000000000000000000000000000000000281526004018083600019166000191681526020018273ffffffffffffffffffffffffffffffffffffffff1673ffffffffffffffffffffffffffffffffffffffff16815260200192505050600060405180830381600087803b1580156128c157600080fd5b505af11580156128d5573d6000803e3d6000fd5b505050506000809054906101000a900473ffffffffffffffffffffffffffffffffffffffff1673ffffffffffffffffffffffffffffffffffffffff1663abfdcced8660405160200180807f636f6e74726163740000000000000000000000000000000000000000000000008152506008018273ffffffffffffffffffffffffffffffffffffffff1673ffffffffffffffffffffffffffffffffffffffff166c010000000000000000000000000281526014019150506040516020818303038152906040526040518082805190602001908083835b6020831015156129ce57805182526020820191506020810190506020830392506129a9565b6001836020036101000a038019825116818451168082178552505050505050905001915050604051809103902060016040518363ffffffff167c01000000000000000000000000000000000000000000000000000000000281526004018083600019166000191681526020018215151515815260200192505050600060405180830381600087803b158015612a6257600080fd5b505af1158015612a76573d6000803e3d6000fd5b505050506000809054906101000a900473ffffffffffffffffffffffffffffffffffffffff1673ffffffffffffffffffffffffffffffffffffffff1663031578af60405160200180807f63757272656e7453746174650000000000000000000000000000000000000000815250600c0190506040516020818303038152906040526040518082805190602001908083835b602083101515612b2c5780518252602082019150602081019050602083039250612b07565b6001836020036101000a03801982511681845116808217855250505050505090500191505060405180910390206040518263ffffffff167c0100000000000000000000000000000000000000000000000000000000028152600401808260001916600019168152602001915050602060405180830381600087803b158015612bb357600080fd5b505af1158015612bc7573d6000803e3d6000fd5b505050506040513d6020811015612bdd57600080fd5b8101908080519060200190929190505050935083856040516020018083600019166000191681526020018273ffffffffffffffffffffffffffffffffffffffff1673ffffffffffffffffffffffffffffffffffffffff166c01000000000000000000000000028152601401925050506040516020818303038152906040526040518082805190602001908083835b602083101515612c905780518252602082019150602081019050602083039250612c6b565b6001836020036101000a038019825116818451168082178552505050505050905001915050604051809103902092506000809054906101000a900473ffffffffffffffffffffffffffffffffffffffff1673ffffffffffffffffffffffffffffffffffffffff16634e91db0860405160200180807f63757272656e7453746174650000000000000000000000000000000000000000815250600c0190506040516020818303038152906040526040518082805190602001908083835b602083101515612d715780518252602082019150602081019050602083039250612d4c565b6001836020036101000a0380198251168184511680821785525050505050509050019150506040518091039020856040518363ffffffff167c0100000000000000000000000000000000000000000000000000000000028152600401808360001916600019168152602001826000191660001916815260200192505050600060405180830381600087803b158015612e0857600080fd5b505af1158015612e1c573d6000803e3d6000fd5b505050507f9018a9c2b051c72b883f4cfbd07b0d04a959e678a57dda3cefaea11d747da28e85888843604051808573ffffffffffffffffffffffffffffffffffffffff1673ffffffffffffffffffffffffffffffffffffffff16815260200180602001838152602001828103825285858281815260200192508082843782019150509550505050505060405180910390a1505050505050505600a165627a7a72305820a0779993527528f5e6ccc357759e6c733a68dbaf11e70a03a67f179908125cfa0029",
  "source": "pragma solidity 0.4.24;\n\nimport \"./Database.sol\";\n\n// @title A contract manager that determines which contracts have write access to platform database\n// @notice This contract determines which contracts are allowed to make changes to the database contract.\n// @author Kyle Dewhurst, MyBit Foundation\ncontract ContractManager{\n  Database public database;\n\n  // @notice constructor: initializes database\n  // @param: the address for the database contract used by this platform\n  constructor(address _database)\n  public {\n    database = Database(_database);\n  }\n\n  // @notice This function adds new contracts to the platform. Giving them write access to Database.sol\n  // @Param: The name of the contract\n  // @Param: The address of the new contract\n  function addContract(string _name, address _contractAddress)\n  external\n  isTrue(_contractAddress != address(0))\n  isTrue(bytes(_name).length != uint(0))\n  anyOwner {\n    require(!database.boolStorage(keccak256(abi.encodePacked(\"contract\", _contractAddress))));\n    require(database.addressStorage(keccak256(abi.encodePacked(\"contract\", _name))) == address(0));\n    database.setAddress(keccak256(abi.encodePacked(\"contract\", _name)), _contractAddress);\n    database.setBool(keccak256(abi.encodePacked(\"contract\", _contractAddress)), true);\n    bytes32 currentState = database.bytes32Storage(keccak256(abi.encodePacked(\"currentState\")));      //Update currentState\n    bytes32 newState = keccak256(abi.encodePacked(currentState, _contractAddress));\n    database.setBytes32(keccak256(abi.encodePacked(\"currentState\")), newState);\n    emit LogContractAdded(_contractAddress, _name, block.number);\n  }\n\n  // @notice Owner can remove an existing contract on the platform.\n  // @Param: The name of the contract\n  // @Param: The owner who authorized this function to be called\n  function removeContract(string _name)\n  external\n  isTrue(bytes(_name).length != uint(0))\n  contractExists(database.addressStorage(keccak256(abi.encodePacked(\"contract\", _name))))\n  anyOwner {\n    address contractToDelete = database.addressStorage(keccak256(abi.encodePacked(\"contract\", _name)));\n    database.deleteBool(keccak256(abi.encodePacked(\"contract\", contractToDelete)));\n    database.deleteAddress(keccak256(abi.encodePacked(\"contract\", _name)));\n    emit LogContractRemoved(contractToDelete, _name, block.number);\n  }\n\n  // @notice Owner can update an existing contract on the platform, giving it write access to Database\n  // @Param: The name of the contract (First Letter Capitalized)\n  // @Param: The address of the new contract\n  function updateContract(string _name, address _newContractAddress)\n  external\n  isTrue(_newContractAddress != 0)\n  contractExists(database.addressStorage(keccak256(abi.encodePacked(\"contract\", _name))))\n  anyOwner {\n    address oldAddress = database.addressStorage(keccak256(abi.encodePacked(\"contract\", _name)));\n    database.setAddress(keccak256(abi.encodePacked(\"contract\", _name)), _newContractAddress);\n    database.setBool(keccak256(abi.encodePacked(\"contract\", _newContractAddress)), true);\n    database.deleteBool(keccak256(abi.encodePacked(\"contract\", oldAddress)));\n    bytes32 currentState = database.bytes32Storage(keccak256(abi.encodePacked(\"currentState\")));      //Update currentState\n    bytes32 newState = keccak256(abi.encodePacked(currentState, _newContractAddress));\n    database.setBytes32(keccak256(abi.encodePacked(\"currentState\")), newState);\n    emit LogContractUpdated(oldAddress, _name, block.number);\n    emit LogNewContractLocation(_newContractAddress, _name, block.number);\n  }\n\n  // @notice user can decide to accept or deny the current and future state of the platform contracts\n  // @notice if user accepts future upgrades they will automatically be able to interact with upgraded contracts\n  // @param (bool) _acceptCurrentState: does the user agree to use the current contracts in the platform\n  // @param (bool) _ignoreStateChanges: does the user agree to use the platform despite contract changes\n  function setContractStatePreferences(bool _acceptCurrentState, bool _ignoreStateChanges)\n  external\n  returns (bool) {\n    bytes32 currentState = database.bytes32Storage(keccak256(abi.encodePacked(\"currentState\")));\n    database.setBool(keccak256(abi.encodePacked(currentState, msg.sender)), _acceptCurrentState);\n    database.setBool(keccak256(abi.encodePacked(\"ignoreStateChanges\", msg.sender)), _ignoreStateChanges);\n    emit LogContractStatePreferenceChanged(msg.sender, _acceptCurrentState, _ignoreStateChanges);\n    return true;\n  }\n\n\n  // ------------------------------------------------------------------------------------------------\n  //                                                Modifiers\n  // ------------------------------------------------------------------------------------------------\n\n  // @notice Verify that sender is an owner\n  modifier anyOwner {\n    require(database.boolStorage(keccak256(abi.encodePacked(\"owner\", msg.sender))));\n    _;\n  }\n\n  // @notice add this modifer to functions that you want multi-sig requirements for\n  // @dev function can only be called after at least n >= quorumLevel owners have agreed to call it\n  modifier isRestricted(bytes4 _methodID, bytes32 _parameterHash) {\n      require(database.boolStorage(keccak256(abi.encodePacked(address(this), _methodID, _parameterHash))));  // owners must have agreed on function + parameters\n    _;\n      database.deleteBool(keccak256(abi.encodePacked(address(this), _methodID, _parameterHash)));\n  }\n\n  modifier contractExists(address _contract) {\n    require(database.boolStorage(keccak256(abi.encodePacked(\"contract\", _contract))));\n    _;\n  }\n\n  modifier isTrue(bool _conditional) {\n    require(_conditional);\n    _;\n  }\n\n\n\n  // ------------------------------------------------------------------------------------------------\n  //                                    Events\n  // ------------------------------------------------------------------------------------------------\n  event LogContractAdded(address _contractAddress, string _name, uint _blockNumber);\n  event LogContractRemoved(address contractToDelete, string _name, uint _blockNumber);\n  event LogContractUpdated(address oldAddress, string _name, uint _blockNumber);\n  event LogNewContractLocation(address _contractAddress, string _name, uint _blockNumber);\n  event LogContractStatePreferenceChanged(address indexed _user, bool _currentStateAcceptance, bool _ignoreStateChanges);\n}\n",
  "sourcePath": "/home/dog/code/mybit/faucet/contracts/ContractManager.sol",
  "compiler": {
    "name": "solc",
    "version": "0.4.24+commit.e67f0147.Emscripten.clang"
  },
  "schemaVersion": "2.0.1",
  "updatedAt": "2018-10-15T14:46:15.143Z"
}