{
  "contractName": "Database",
  "abi": [
    {
      "constant": true,
      "inputs": [
        {
          "name": "",
          "type": "bytes32"
        }
      ],
      "name": "bytes32Storage",
      "outputs": [
        {
          "name": "",
          "type": "bytes32"
        }
      ],
      "payable": false,
      "stateMutability": "view",
      "type": "function"
    },
    {
      "constant": true,
      "inputs": [
        {
          "name": "",
          "type": "bytes32"
        }
      ],
      "name": "addressStorage",
      "outputs": [
        {
          "name": "",
          "type": "address"
        }
      ],
      "payable": false,
      "stateMutability": "view",
      "type": "function"
    },
    {
      "constant": true,
      "inputs": [
        {
          "name": "",
          "type": "bytes32"
        }
      ],
      "name": "stringStorage",
      "outputs": [
        {
          "name": "",
          "type": "string"
        }
      ],
      "payable": false,
      "stateMutability": "view",
      "type": "function"
    },
    {
      "constant": true,
      "inputs": [
        {
          "name": "",
          "type": "bytes32"
        }
      ],
      "name": "boolStorage",
      "outputs": [
        {
          "name": "",
          "type": "bool"
        }
      ],
      "payable": false,
      "stateMutability": "view",
      "type": "function"
    },
    {
      "constant": true,
      "inputs": [
        {
          "name": "",
          "type": "bytes32"
        }
      ],
      "name": "bytesStorage",
      "outputs": [
        {
          "name": "",
          "type": "bytes"
        }
      ],
      "payable": false,
      "stateMutability": "view",
      "type": "function"
    },
    {
      "constant": true,
      "inputs": [
        {
          "name": "",
          "type": "bytes32"
        }
      ],
      "name": "intStorage",
      "outputs": [
        {
          "name": "",
          "type": "int256"
        }
      ],
      "payable": false,
      "stateMutability": "view",
      "type": "function"
    },
    {
      "constant": true,
      "inputs": [
        {
          "name": "",
          "type": "bytes32"
        }
      ],
      "name": "uintStorage",
      "outputs": [
        {
          "name": "",
          "type": "uint256"
        }
      ],
      "payable": false,
      "stateMutability": "view",
      "type": "function"
    },
    {
      "inputs": [
        {
          "name": "_owners",
          "type": "address[]"
        },
        {
          "name": "_upgradeable",
          "type": "bool"
        }
      ],
      "payable": false,
      "stateMutability": "nonpayable",
      "type": "constructor"
    },
    {
      "anonymous": false,
      "inputs": [
        {
          "indexed": false,
          "name": "_owner",
          "type": "address"
        },
        {
          "indexed": false,
          "name": "_upgradeable",
          "type": "bool"
        }
      ],
      "name": "LogInitialized",
      "type": "event"
    },
    {
      "constant": false,
      "inputs": [
        {
          "name": "_contractManager",
          "type": "address"
        }
      ],
      "name": "enableContractManagement",
      "outputs": [],
      "payable": false,
      "stateMutability": "nonpayable",
      "type": "function"
    },
    {
      "constant": false,
      "inputs": [
        {
          "name": "_key",
          "type": "bytes32"
        },
        {
          "name": "_value",
          "type": "address"
        }
      ],
      "name": "setAddress",
      "outputs": [],
      "payable": false,
      "stateMutability": "nonpayable",
      "type": "function"
    },
    {
      "constant": false,
      "inputs": [
        {
          "name": "_key",
          "type": "bytes32"
        },
        {
          "name": "_value",
          "type": "uint256"
        }
      ],
      "name": "setUint",
      "outputs": [],
      "payable": false,
      "stateMutability": "nonpayable",
      "type": "function"
    },
    {
      "constant": false,
      "inputs": [
        {
          "name": "_key",
          "type": "bytes32"
        },
        {
          "name": "_value",
          "type": "string"
        }
      ],
      "name": "setString",
      "outputs": [],
      "payable": false,
      "stateMutability": "nonpayable",
      "type": "function"
    },
    {
      "constant": false,
      "inputs": [
        {
          "name": "_key",
          "type": "bytes32"
        },
        {
          "name": "_value",
          "type": "bytes"
        }
      ],
      "name": "setBytes",
      "outputs": [],
      "payable": false,
      "stateMutability": "nonpayable",
      "type": "function"
    },
    {
      "constant": false,
      "inputs": [
        {
          "name": "_key",
          "type": "bytes32"
        },
        {
          "name": "_value",
          "type": "bytes32"
        }
      ],
      "name": "setBytes32",
      "outputs": [],
      "payable": false,
      "stateMutability": "nonpayable",
      "type": "function"
    },
    {
      "constant": false,
      "inputs": [
        {
          "name": "_key",
          "type": "bytes32"
        },
        {
          "name": "_value",
          "type": "bool"
        }
      ],
      "name": "setBool",
      "outputs": [],
      "payable": false,
      "stateMutability": "nonpayable",
      "type": "function"
    },
    {
      "constant": false,
      "inputs": [
        {
          "name": "_key",
          "type": "bytes32"
        },
        {
          "name": "_value",
          "type": "int256"
        }
      ],
      "name": "setInt",
      "outputs": [],
      "payable": false,
      "stateMutability": "nonpayable",
      "type": "function"
    },
    {
      "constant": false,
      "inputs": [
        {
          "name": "_key",
          "type": "bytes32"
        }
      ],
      "name": "deleteAddress",
      "outputs": [],
      "payable": false,
      "stateMutability": "nonpayable",
      "type": "function"
    },
    {
      "constant": false,
      "inputs": [
        {
          "name": "_key",
          "type": "bytes32"
        }
      ],
      "name": "deleteUint",
      "outputs": [],
      "payable": false,
      "stateMutability": "nonpayable",
      "type": "function"
    },
    {
      "constant": false,
      "inputs": [
        {
          "name": "_key",
          "type": "bytes32"
        }
      ],
      "name": "deleteString",
      "outputs": [],
      "payable": false,
      "stateMutability": "nonpayable",
      "type": "function"
    },
    {
      "constant": false,
      "inputs": [
        {
          "name": "_key",
          "type": "bytes32"
        }
      ],
      "name": "deleteBytes",
      "outputs": [],
      "payable": false,
      "stateMutability": "nonpayable",
      "type": "function"
    },
    {
      "constant": false,
      "inputs": [
        {
          "name": "_key",
          "type": "bytes32"
        }
      ],
      "name": "deleteBytes32",
      "outputs": [],
      "payable": false,
      "stateMutability": "nonpayable",
      "type": "function"
    },
    {
      "constant": false,
      "inputs": [
        {
          "name": "_key",
          "type": "bytes32"
        }
      ],
      "name": "deleteBool",
      "outputs": [],
      "payable": false,
      "stateMutability": "nonpayable",
      "type": "function"
    },
    {
      "constant": false,
      "inputs": [
        {
          "name": "_key",
          "type": "bytes32"
        }
      ],
      "name": "deleteInt",
      "outputs": [],
      "payable": false,
      "stateMutability": "nonpayable",
      "type": "function"
    }
  ],
  "bytecode": "0x60806040523480156200001157600080fd5b506040516200251138038062002511833981018060405281019080805182019291906020018051906020019092919050505060008090505b82518110156200021a5760016005600085848151811015156200006857fe5b9060200190602002015160405160200180807f6f776e65720000000000000000000000000000000000000000000000000000008152506005018273ffffffffffffffffffffffffffffffffffffffff1673ffffffffffffffffffffffffffffffffffffffff166c010000000000000000000000000281526014019150506040516020818303038152906040526040518082805190602001908083835b6020831015156200012b578051825260208201915060208101905060208303925062000104565b6001836020036101000a03801982511681845116808217855250505050505090500191505060405180910390206000191660001916815260200190815260200160002060006101000a81548160ff0219169083151502179055507fbe26aef92934d4b8ff14c2822ad9b235e7c1bbd101a447c62366b1bd99e8d1968382815181101515620001b557fe5b9060200190602002015183604051808373ffffffffffffffffffffffffffffffffffffffff1673ffffffffffffffffffffffffffffffffffffffff168152602001821515151581526020019250505060405180910390a1808060010191505062000049565b81156200028b5760016005600060405180807f7570677261646561626c65000000000000000000000000000000000000000000815250600b01905060405180910390206000191660001916815260200190815260200160002060006101000a81548160ff0219169083151502179055505b505050612273806200029e6000396000f300608060405260043610610128576000357c0100000000000000000000000000000000000000000000000000000000900463ffffffff168063031578af1461012d57806304f49a3a1461017a5780630b9adc57146101eb5780630e14a3761461021c578063196ce79f1461024d5780632c62ff2d146102905780632e28d084146102c157806335f7ff631461030a5780633b7bfda0146103b45780633e49bed0146103fd5780634a3270d7146104385780634e91db08146104e2578063616b59f6146105215780636e89955014610552578063789c617c1461059b5780638c160095146105e0578063a855d4ce14610611578063abfdcced14610656578063ca446dd914610693578063e2a4853a146106e4578063e2b202bf1461071f578063f6bb3cc414610750575b600080fd5b34801561013957600080fd5b5061015c6004803603810190808035600019169060200190929190505050610781565b60405180826000191660001916815260200191505060405180910390f35b34801561018657600080fd5b506101a96004803603810190808035600019169060200190929190505050610799565b604051808273ffffffffffffffffffffffffffffffffffffffff1673ffffffffffffffffffffffffffffffffffffffff16815260200191505060405180910390f35b3480156101f757600080fd5b5061021a60048036038101908080356000191690602001909291905050506107cc565b005b34801561022857600080fd5b5061024b6004803603810190808035600019169060200190929190505050610906565b005b34801561025957600080fd5b5061028e600480360381019080803573ffffffffffffffffffffffffffffffffffffffff169060200190929190505050610a5f565b005b34801561029c57600080fd5b506102bf6004803603810190808035600019169060200190929190505050610f99565b005b3480156102cd57600080fd5b5061030860048036038101908080356000191690602001909291908035906020019082018035906020019190919293919293905050506110df565b005b34801561031657600080fd5b506103396004803603810190808035600019169060200190929190505050611227565b6040518080602001828103825283818151815260200191508051906020019080838360005b8381101561037957808201518184015260208101905061035e565b50505050905090810190601f1680156103a65780820380516001836020036101000a031916815260200191505b509250505060405180910390f35b3480156103c057600080fd5b506103e360048036038101908080356000191690602001909291905050506112d7565b604051808215151515815260200191505060405180910390f35b34801561040957600080fd5b506104366004803603810190808035600019169060200190929190803590602001909291905050506112f7565b005b34801561044457600080fd5b506104676004803603810190808035600019169060200190929190505050611433565b6040518080602001828103825283818151815260200191508051906020019080838360005b838110156104a757808201518184015260208101905061048c565b50505050905090810190601f1680156104d45780820380516001836020036101000a031916815260200191505b509250505060405180910390f35b3480156104ee57600080fd5b5061051f600480360381019080803560001916906020019092919080356000191690602001909291905050506114e3565b005b34801561052d57600080fd5b506105506004803603810190808035600019169060200190929190505050611623565b005b34801561055e57600080fd5b506105996004803603810190808035600019169060200190929190803590602001908201803590602001919091929391929390505050611765565b005b3480156105a757600080fd5b506105ca60048036038101908080356000191690602001909291905050506118ad565b6040518082815260200191505060405180910390f35b3480156105ec57600080fd5b5061060f60048036038101908080356000191690602001909291905050506118c5565b005b34801561061d57600080fd5b5061064060048036038101908080356000191690602001909291905050506119ff565b6040518082815260200191505060405180910390f35b34801561066257600080fd5b506106916004803603810190808035600019169060200190929190803515159060200190929190505050611a17565b005b34801561069f57600080fd5b506106e26004803603810190808035600019169060200190929190803573ffffffffffffffffffffffffffffffffffffffff169060200190929190505050611b66565b005b3480156106f057600080fd5b5061071d600480360381019080803560001916906020019092919080359060200190929190505050611cdc565b005b34801561072b57600080fd5b5061074e6004803603810190808035600019169060200190929190505050611e17565b005b34801561075c57600080fd5b5061077f6004803603810190808035600019169060200190929190505050611f50565b005b60046020528060005260406000206000915090505481565b60026020528060005260406000206000915054906101000a900473ffffffffffffffffffffffffffffffffffffffff1681565b600560003360405160200180807f636f6e74726163740000000000000000000000000000000000000000000000008152506008018273ffffffffffffffffffffffffffffffffffffffff1673ffffffffffffffffffffffffffffffffffffffff166c010000000000000000000000000281526014019150506040516020818303038152906040526040518082805190602001908083835b6020831015156108885780518252602082019150602081019050602083039250610863565b6001836020036101000a03801982511681845116808217855250505050505090500191505060405180910390206000191660001916815260200190815260200160002060009054906101000a900460ff1615156108e457600080fd5b6004600082600019166000191681526020019081526020016000206000905550565b600560003360405160200180807f636f6e74726163740000000000000000000000000000000000000000000000008152506008018273ffffffffffffffffffffffffffffffffffffffff1673ffffffffffffffffffffffffffffffffffffffff166c010000000000000000000000000281526014019150506040516020818303038152906040526040518082805190602001908083835b6020831015156109c2578051825260208201915060208101905060208303925061099d565b6001836020036101000a03801982511681845116808217855250505050505090500191505060405180910390206000191660001916815260200190815260200160002060009054906101000a900460ff161515610a1e57600080fd5b60026000826000191660001916815260200190815260200160002060006101000a81549073ffffffffffffffffffffffffffffffffffffffff021916905550565b6005600060405180807f7570677261646561626c65000000000000000000000000000000000000000000815250600b01905060405180910390206000191660001916815260200190815260200160002060009054906101000a900460ff161515610ac857600080fd5b600073ffffffffffffffffffffffffffffffffffffffff168173ffffffffffffffffffffffffffffffffffffffff1614151515610b0457600080fd5b600560003360405160200180807f6f776e65720000000000000000000000000000000000000000000000000000008152506005018273ffffffffffffffffffffffffffffffffffffffff1673ffffffffffffffffffffffffffffffffffffffff166c010000000000000000000000000281526014019150506040516020818303038152906040526040518082805190602001908083835b602083101515610bc05780518252602082019150602081019050602083039250610b9b565b6001836020036101000a03801982511681845116808217855250505050505090500191505060405180910390206000191660001916815260200190815260200160002060009054906101000a900460ff161515610c1c57600080fd5b600073ffffffffffffffffffffffffffffffffffffffff166002600060405160200180807f636f6e7472616374000000000000000000000000000000000000000000000000815250600801807f436f6e74726163744d616e616765720000000000000000000000000000000000815250600f0190506040516020818303038152906040526040518082805190602001908083835b602083101515610cd55780518252602082019150602081019050602083039250610cb0565b6001836020036101000a03801982511681845116808217855250505050505090500191505060405180910390206000191660001916815260200190815260200160002060009054906101000a900473ffffffffffffffffffffffffffffffffffffffff1673ffffffffffffffffffffffffffffffffffffffff16141515610d5b57600080fd5b806002600060405160200180807f636f6e7472616374000000000000000000000000000000000000000000000000815250600801807f436f6e74726163744d616e616765720000000000000000000000000000000000815250600f0190506040516020818303038152906040526040518082805190602001908083835b602083101515610dfd5780518252602082019150602081019050602083039250610dd8565b6001836020036101000a03801982511681845116808217855250505050505090500191505060405180910390206000191660001916815260200190815260200160002060006101000a81548173ffffffffffffffffffffffffffffffffffffffff021916908373ffffffffffffffffffffffffffffffffffffffff1602179055506001600560008360405160200180807f636f6e74726163740000000000000000000000000000000000000000000000008152506008018273ffffffffffffffffffffffffffffffffffffffff1673ffffffffffffffffffffffffffffffffffffffff166c010000000000000000000000000281526014019150506040516020818303038152906040526040518082805190602001908083835b602083101515610f3c5780518252602082019150602081019050602083039250610f17565b6001836020036101000a03801982511681845116808217855250505050505090500191505060405180910390206000191660001916815260200190815260200160002060006101000a81548160ff02191690831515021790555050565b600560003360405160200180807f636f6e74726163740000000000000000000000000000000000000000000000008152506008018273ffffffffffffffffffffffffffffffffffffffff1673ffffffffffffffffffffffffffffffffffffffff166c010000000000000000000000000281526014019150506040516020818303038152906040526040518082805190602001908083835b6020831015156110555780518252602082019150602081019050602083039250611030565b6001836020036101000a03801982511681845116808217855250505050505090500191505060405180910390206000191660001916815260200190815260200160002060009054906101000a900460ff1615156110b157600080fd5b60056000826000191660001916815260200190815260200160002060006101000a81549060ff021916905550565b600560003360405160200180807f636f6e74726163740000000000000000000000000000000000000000000000008152506008018273ffffffffffffffffffffffffffffffffffffffff1673ffffffffffffffffffffffffffffffffffffffff166c010000000000000000000000000281526014019150506040516020818303038152906040526040518082805190602001908083835b60208310151561119b5780518252602082019150602081019050602083039250611176565b6001836020036101000a03801982511681845116808217855250505050505090500191505060405180910390206000191660001916815260200190815260200160002060009054906101000a900460ff1615156111f757600080fd5b81816003600086600019166000191681526020019081526020016000209190611221929190612092565b50505050565b60016020528060005260406000206000915090508054600181600116156101000203166002900480601f0160208091040260200160405190810160405280929190818152602001828054600181600116156101000203166002900480156112cf5780601f106112a4576101008083540402835291602001916112cf565b820191906000526020600020905b8154815290600101906020018083116112b257829003601f168201915b505050505081565b60056020528060005260406000206000915054906101000a900460ff1681565b600560003360405160200180807f636f6e74726163740000000000000000000000000000000000000000000000008152506008018273ffffffffffffffffffffffffffffffffffffffff1673ffffffffffffffffffffffffffffffffffffffff166c010000000000000000000000000281526014019150506040516020818303038152906040526040518082805190602001908083835b6020831015156113b3578051825260208201915060208101905060208303925061138e565b6001836020036101000a03801982511681845116808217855250505050505090500191505060405180910390206000191660001916815260200190815260200160002060009054906101000a900460ff16151561140f57600080fd5b80600660008460001916600019168152602001908152602001600020819055505050565b60036020528060005260406000206000915090508054600181600116156101000203166002900480601f0160208091040260200160405190810160405280929190818152602001828054600181600116156101000203166002900480156114db5780601f106114b0576101008083540402835291602001916114db565b820191906000526020600020905b8154815290600101906020018083116114be57829003601f168201915b505050505081565b600560003360405160200180807f636f6e74726163740000000000000000000000000000000000000000000000008152506008018273ffffffffffffffffffffffffffffffffffffffff1673ffffffffffffffffffffffffffffffffffffffff166c010000000000000000000000000281526014019150506040516020818303038152906040526040518082805190602001908083835b60208310151561159f578051825260208201915060208101905060208303925061157a565b6001836020036101000a03801982511681845116808217855250505050505090500191505060405180910390206000191660001916815260200190815260200160002060009054906101000a900460ff1615156115fb57600080fd5b8060046000846000191660001916815260200190815260200160002081600019169055505050565b600560003360405160200180807f636f6e74726163740000000000000000000000000000000000000000000000008152506008018273ffffffffffffffffffffffffffffffffffffffff1673ffffffffffffffffffffffffffffffffffffffff166c010000000000000000000000000281526014019150506040516020818303038152906040526040518082805190602001908083835b6020831015156116df57805182526020820191506020810190506020830392506116ba565b6001836020036101000a03801982511681845116808217855250505050505090500191505060405180910390206000191660001916815260200190815260200160002060009054906101000a900460ff16151561173b57600080fd5b60036000826000191660001916815260200190815260200160002060006117629190612112565b50565b600560003360405160200180807f636f6e74726163740000000000000000000000000000000000000000000000008152506008018273ffffffffffffffffffffffffffffffffffffffff1673ffffffffffffffffffffffffffffffffffffffff166c010000000000000000000000000281526014019150506040516020818303038152906040526040518082805190602001908083835b60208310151561182157805182526020820191506020810190506020830392506117fc565b6001836020036101000a03801982511681845116808217855250505050505090500191505060405180910390206000191660001916815260200190815260200160002060009054906101000a900460ff16151561187d57600080fd5b818160016000866000191660001916815260200190815260200160002091906118a792919061215a565b50505050565b60066020528060005260406000206000915090505481565b600560003360405160200180807f636f6e74726163740000000000000000000000000000000000000000000000008152506008018273ffffffffffffffffffffffffffffffffffffffff1673ffffffffffffffffffffffffffffffffffffffff166c010000000000000000000000000281526014019150506040516020818303038152906040526040518082805190602001908083835b602083101515611981578051825260208201915060208101905060208303925061195c565b6001836020036101000a03801982511681845116808217855250505050505090500191505060405180910390206000191660001916815260200190815260200160002060009054906101000a900460ff1615156119dd57600080fd5b6006600082600019166000191681526020019081526020016000206000905550565b60006020528060005260406000206000915090505481565b600560003360405160200180807f636f6e74726163740000000000000000000000000000000000000000000000008152506008018273ffffffffffffffffffffffffffffffffffffffff1673ffffffffffffffffffffffffffffffffffffffff166c010000000000000000000000000281526014019150506040516020818303038152906040526040518082805190602001908083835b602083101515611ad35780518252602082019150602081019050602083039250611aae565b6001836020036101000a03801982511681845116808217855250505050505090500191505060405180910390206000191660001916815260200190815260200160002060009054906101000a900460ff161515611b2f57600080fd5b8060056000846000191660001916815260200190815260200160002060006101000a81548160ff0219169083151502179055505050565b600560003360405160200180807f636f6e74726163740000000000000000000000000000000000000000000000008152506008018273ffffffffffffffffffffffffffffffffffffffff1673ffffffffffffffffffffffffffffffffffffffff166c010000000000000000000000000281526014019150506040516020818303038152906040526040518082805190602001908083835b602083101515611c225780518252602082019150602081019050602083039250611bfd565b6001836020036101000a03801982511681845116808217855250505050505090500191505060405180910390206000191660001916815260200190815260200160002060009054906101000a900460ff161515611c7e57600080fd5b8060026000846000191660001916815260200190815260200160002060006101000a81548173ffffffffffffffffffffffffffffffffffffffff021916908373ffffffffffffffffffffffffffffffffffffffff1602179055505050565b600560003360405160200180807f636f6e74726163740000000000000000000000000000000000000000000000008152506008018273ffffffffffffffffffffffffffffffffffffffff1673ffffffffffffffffffffffffffffffffffffffff166c010000000000000000000000000281526014019150506040516020818303038152906040526040518082805190602001908083835b602083101515611d985780518252602082019150602081019050602083039250611d73565b6001836020036101000a03801982511681845116808217855250505050505090500191505060405180910390206000191660001916815260200190815260200160002060009054906101000a900460ff161515611df457600080fd5b806000808460001916600019168152602001908152602001600020819055505050565b600560003360405160200180807f636f6e74726163740000000000000000000000000000000000000000000000008152506008018273ffffffffffffffffffffffffffffffffffffffff1673ffffffffffffffffffffffffffffffffffffffff166c010000000000000000000000000281526014019150506040516020818303038152906040526040518082805190602001908083835b602083101515611ed35780518252602082019150602081019050602083039250611eae565b6001836020036101000a03801982511681845116808217855250505050505090500191505060405180910390206000191660001916815260200190815260200160002060009054906101000a900460ff161515611f2f57600080fd5b60008082600019166000191681526020019081526020016000206000905550565b600560003360405160200180807f636f6e74726163740000000000000000000000000000000000000000000000008152506008018273ffffffffffffffffffffffffffffffffffffffff1673ffffffffffffffffffffffffffffffffffffffff166c010000000000000000000000000281526014019150506040516020818303038152906040526040518082805190602001908083835b60208310151561200c5780518252602082019150602081019050602083039250611fe7565b6001836020036101000a03801982511681845116808217855250505050505090500191505060405180910390206000191660001916815260200190815260200160002060009054906101000a900460ff16151561206857600080fd5b600160008260001916600019168152602001908152602001600020600061208f91906121da565b50565b828054600181600116156101000203166002900490600052602060002090601f016020900481019282601f106120d357803560ff1916838001178555612101565b82800160010185558215612101579182015b828111156121005782358255916020019190600101906120e5565b5b50905061210e9190612222565b5090565b50805460018160011615610100020316600290046000825580601f106121385750612157565b601f0160209004906000526020600020908101906121569190612222565b5b50565b828054600181600116156101000203166002900490600052602060002090601f016020900481019282601f1061219b57803560ff19168380011785556121c9565b828001600101855582156121c9579182015b828111156121c85782358255916020019190600101906121ad565b5b5090506121d69190612222565b5090565b50805460018160011615610100020316600290046000825580601f10612200575061221f565b601f01602090049060005260206000209081019061221e9190612222565b5b50565b61224491905b80821115612240576000816000905550600101612228565b5090565b905600a165627a7a72305820310754179d2b8c1f3b297962b0248fa0862d8dd36ed8182720b831e7e57aaae70029",
  "source": "pragma solidity 0.4.24;\n\n\n// ---------------------------------------------------------------------------------\n// @title A shared storage contract for platform contracts to store and retrieve data\n// @notice This contract holds all long-term data for smart-contract systems\n// @dev The bytes32 hashes are derived from keccak256(variableName, uniqueID) => value\n// @dec Can enable upgradeable contracts by setting a contract manager\n// ---------------------------------------------------------------------------------\ncontract Database{\n\n    // --------------------------------------------------------------------------------------\n    // Storage Variables\n    // --------------------------------------------------------------------------------------\n    mapping(bytes32 => uint) public uintStorage;\n    mapping(bytes32 => string) public stringStorage;\n    mapping(bytes32 => address) public addressStorage;\n    mapping(bytes32 => bytes) public bytesStorage;\n    mapping(bytes32 => bytes32) public bytes32Storage;\n    mapping(bytes32 => bool) public boolStorage;\n    mapping(bytes32 => int) public intStorage;\n\n\n\n    // --------------------------------------------------------------------------------------\n    // @notice Constructor: Sets the owners of the platform\n    // @dev Owners must set the contract manager to add more contracts\n    // --------------------------------------------------------------------------------------\n    constructor(address[] _owners, bool _upgradeable) public {\n      for(uint i=0; i<_owners.length; i++){\n        boolStorage[keccak256(abi.encodePacked(\"owner\", _owners[i]))] = true;\n        emit LogInitialized(_owners[i], _upgradeable);\n      }\n      if (_upgradeable){\n        boolStorage[keccak256(\"upgradeable\")] = true;\n      }\n    }\n\n\n    // --------------------------------------------------------------------------------------\n    // @notice ContractManager will be the only contract that can add/remove contracts on the platform.\n    // @param (address) _contractManager is the contract which can upgrade/remove contracts to platform\n    // --------------------------------------------------------------------------------------\n    function enableContractManagement(address _contractManager)\n    external {\n        require(boolStorage[keccak256(\"upgradeable\")]);\n        require(_contractManager != address(0));\n        require(boolStorage[keccak256(abi.encodePacked(\"owner\", msg.sender))]);\n        require(addressStorage[keccak256(abi.encodePacked(\"contract\", \"ContractManager\"))] == address(0));\n        addressStorage[keccak256(abi.encodePacked(\"contract\", \"ContractManager\"))] = _contractManager;\n        boolStorage[keccak256(abi.encodePacked(\"contract\", _contractManager))] = true;\n    }\n\n    // --------------------------------------------------------------------------------------\n    //  Storage functions\n    // --------------------------------------------------------------------------------------\n\n    function setAddress(bytes32 _key, address _value)\n    onlyApprovedContract\n    external {\n        addressStorage[_key] = _value;\n    }\n\n    function setUint(bytes32 _key, uint _value)\n    onlyApprovedContract\n    external {\n        uintStorage[_key] = _value;\n    }\n\n    function setString(bytes32 _key, string _value)\n    onlyApprovedContract\n    external {\n        stringStorage[_key] = _value;\n    }\n\n    function setBytes(bytes32 _key, bytes _value)\n    onlyApprovedContract\n    external {\n        bytesStorage[_key] = _value;\n    }\n\n    function setBytes32(bytes32 _key, bytes32 _value)\n    onlyApprovedContract\n    external {\n        bytes32Storage[_key] = _value;\n    }\n\n    function setBool(bytes32 _key, bool _value)\n    onlyApprovedContract\n    external {\n        boolStorage[_key] = _value;\n    }\n\n    function setInt(bytes32 _key, int _value)\n    onlyApprovedContract\n    external {\n        intStorage[_key] = _value;\n    }\n\n\n    // --------------------------------------------------------------------------------------\n    // Deletion functions: Can alternatively use setter functions and set to null value (ie. uint = 0)\n    // --------------------------------------------------------------------------------------\n\n    function deleteAddress(bytes32 _key)\n    onlyApprovedContract\n    external {\n        delete addressStorage[_key];\n    }\n\n    function deleteUint(bytes32 _key)\n    onlyApprovedContract\n    external {\n        delete uintStorage[_key];\n    }\n\n    function deleteString(bytes32 _key)\n    onlyApprovedContract\n    external {\n        delete stringStorage[_key];\n    }\n\n    function deleteBytes(bytes32 _key)\n    onlyApprovedContract\n    external {\n        delete bytesStorage[_key];\n    }\n\n    function deleteBytes32(bytes32 _key)\n    onlyApprovedContract\n    external {\n        delete bytes32Storage[_key];\n    }\n\n    function deleteBool(bytes32 _key)\n    onlyApprovedContract\n    external {\n        delete boolStorage[_key];\n    }\n\n    function deleteInt(bytes32 _key)\n    onlyApprovedContract\n    external {\n        delete intStorage[_key];\n    }\n\n\n\n    // --------------------------------------------------------------------------------------\n    // Caller must be registered as a contract through ContractManager.sol\n    // --------------------------------------------------------------------------------------\n    modifier onlyApprovedContract() {\n        require(boolStorage[keccak256(abi.encodePacked(\"contract\", msg.sender))]);\n        _;\n    }\n\n    // --------------------------------------------------------------------------------------\n    // Events\n    // --------------------------------------------------------------------------------------\n    event LogInitialized(address _owner, bool _upgradeable);\n}\n",
  "sourcePath": "/home/dog/code/mybit/faucet/contracts/Database.sol",
  "compiler": {
    "name": "solc",
    "version": "0.4.24+commit.e67f0147.Emscripten.clang"
  },
  "schemaVersion": "2.0.1",
  "updatedAt": "2018-10-15T14:46:15.146Z"
}