{
  "contractName": "TokenFaucet",
  "abi": [
    {
      "constant": true,
      "inputs": [],
      "name": "weiBalance",
      "outputs": [
        {
          "name": "",
          "type": "uint256"
        }
      ],
      "payable": false,
      "stateMutability": "view",
      "type": "function"
    },
    {
      "constant": true,
      "inputs": [],
      "name": "dripAmountWEI",
      "outputs": [
        {
          "name": "",
          "type": "uint256"
        }
      ],
      "payable": false,
      "stateMutability": "view",
      "type": "function"
    },
    {
      "constant": true,
      "inputs": [],
      "name": "database",
      "outputs": [
        {
          "name": "",
          "type": "address"
        }
      ],
      "payable": false,
      "stateMutability": "view",
      "type": "function"
    },
    {
      "constant": true,
      "inputs": [],
      "name": "tokenBalance",
      "outputs": [
        {
          "name": "",
          "type": "uint256"
        }
      ],
      "payable": false,
      "stateMutability": "view",
      "type": "function"
    },
    {
      "constant": true,
      "inputs": [],
      "name": "dripAmountToken",
      "outputs": [
        {
          "name": "",
          "type": "uint256"
        }
      ],
      "payable": false,
      "stateMutability": "view",
      "type": "function"
    },
    {
      "constant": true,
      "inputs": [],
      "name": "oneYear",
      "outputs": [
        {
          "name": "",
          "type": "uint256"
        }
      ],
      "payable": false,
      "stateMutability": "view",
      "type": "function"
    },
    {
      "constant": true,
      "inputs": [],
      "name": "token",
      "outputs": [
        {
          "name": "",
          "type": "address"
        }
      ],
      "payable": false,
      "stateMutability": "view",
      "type": "function"
    },
    {
      "inputs": [
        {
          "name": "_database",
          "type": "address"
        },
        {
          "name": "_tokenAddress",
          "type": "address"
        },
        {
          "name": "_accessPass",
          "type": "bytes32"
        }
      ],
      "payable": false,
      "stateMutability": "nonpayable",
      "type": "constructor"
    },
    {
      "anonymous": false,
      "inputs": [
        {
          "indexed": false,
          "name": "_sender",
          "type": "address"
        },
        {
          "indexed": false,
          "name": "_amountToken",
          "type": "uint256"
        },
        {
          "indexed": false,
          "name": "_amountWEI",
          "type": "uint256"
        }
      ],
      "name": "LogWithdraw",
      "type": "event"
    },
    {
      "anonymous": false,
      "inputs": [
        {
          "indexed": false,
          "name": "_depositer",
          "type": "address"
        },
        {
          "indexed": false,
          "name": "_amount",
          "type": "uint256"
        },
        {
          "indexed": false,
          "name": "_data",
          "type": "bytes"
        }
      ],
      "name": "LogTokenDeposited",
      "type": "event"
    },
    {
      "anonymous": false,
      "inputs": [
        {
          "indexed": false,
          "name": "_depositer",
          "type": "address"
        },
        {
          "indexed": false,
          "name": "_amountWEI",
          "type": "uint256"
        }
      ],
      "name": "LogEthDeposited",
      "type": "event"
    },
    {
      "constant": false,
      "inputs": [
        {
          "name": "_from",
          "type": "address"
        },
        {
          "name": "_amount",
          "type": "uint256"
        },
        {
          "name": "_token",
          "type": "address"
        },
        {
          "name": "_data",
          "type": "bytes"
        }
      ],
      "name": "receiveApproval",
      "outputs": [],
      "payable": false,
      "stateMutability": "nonpayable",
      "type": "function"
    },
    {
      "constant": false,
      "inputs": [],
      "name": "depositWEI",
      "outputs": [],
      "payable": true,
      "stateMutability": "payable",
      "type": "function"
    },
    {
      "constant": false,
      "inputs": [
        {
          "name": "_pass",
          "type": "string"
        }
      ],
      "name": "withdraw",
      "outputs": [],
      "payable": false,
      "stateMutability": "nonpayable",
      "type": "function"
    },
    {
      "constant": false,
      "inputs": [
        {
          "name": "_newPass",
          "type": "bytes32"
        }
      ],
      "name": "changePass",
      "outputs": [
        {
          "name": "",
          "type": "bool"
        }
      ],
      "payable": false,
      "stateMutability": "nonpayable",
      "type": "function"
    },
    {
      "constant": false,
      "inputs": [
        {
          "name": "_newAmountWEI",
          "type": "uint256"
        },
        {
          "name": "_newAmountMYB",
          "type": "uint256"
        }
      ],
      "name": "changeDripAmounts",
      "outputs": [
        {
          "name": "",
          "type": "bool"
        }
      ],
      "payable": false,
      "stateMutability": "nonpayable",
      "type": "function"
    },
    {
      "constant": false,
      "inputs": [],
      "name": "destroy",
      "outputs": [
        {
          "name": "",
          "type": "bool"
        }
      ],
      "payable": false,
      "stateMutability": "nonpayable",
      "type": "function"
    }
  ],
  "bytecode": "0x608060405269021e19e0c9bab24000006004556706f05b59d3b200006005556301e1338060075534801561003257600080fd5b5060405160608061145b83398101806040528101908080519060200190929190805190602001909291908051906020019092919050505082600160006101000a81548173ffffffffffffffffffffffffffffffffffffffff021916908373ffffffffffffffffffffffffffffffffffffffff160217905550816000806101000a81548173ffffffffffffffffffffffffffffffffffffffff021916908373ffffffffffffffffffffffffffffffffffffffff1602179055508060068160001916905550505050611354806101076000396000f3006080604052600436106100c5576000357c0100000000000000000000000000000000000000000000000000000000900463ffffffff1680632969d202146100ca57806331fb67c2146100f5578063443ea6a214610130578063713b563f1461015b57806383197ef0146101b25780638f4ffcb1146101e15780639d7a63e9146102665780639e1a4d19146102b5578063a707ce55146102e0578063c10726fb14610329578063c3c5026c14610354578063f27c3bf61461035e578063fc0c546a14610389575b600080fd5b3480156100d657600080fd5b506100df6103e0565b6040518082815260200191505060405180910390f35b34801561010157600080fd5b5061012e6004803603810190808035906020019082018035906020019190919293919293905050506103e6565b005b34801561013c57600080fd5b506101456108e7565b6040518082815260200191505060405180910390f35b34801561016757600080fd5b506101706108ed565b604051808273ffffffffffffffffffffffffffffffffffffffff1673ffffffffffffffffffffffffffffffffffffffff16815260200191505060405180910390f35b3480156101be57600080fd5b506101c7610913565b604051808215151515815260200191505060405180910390f35b3480156101ed57600080fd5b50610264600480360381019080803573ffffffffffffffffffffffffffffffffffffffff16906020019092919080359060200190929190803573ffffffffffffffffffffffffffffffffffffffff169060200190929190803590602001908201803590602001919091929391929390505050610bfd565b005b34801561027257600080fd5b5061029b6004803603810190808035906020019092919080359060200190929190505050610e7c565b604051808215151515815260200191505060405180910390f35b3480156102c157600080fd5b506102ca611059565b6040518082815260200191505060405180910390f35b3480156102ec57600080fd5b5061030f600480360381019080803560001916906020019092919050505061105f565b604051808215151515815260200191505060405180910390f35b34801561033557600080fd5b5061033e611238565b6040518082815260200191505060405180910390f35b61035c61123e565b005b34801561036a57600080fd5b506103736112c6565b6040518082815260200191505060405180910390f35b34801561039557600080fd5b5061039e6112cc565b604051808273ffffffffffffffffffffffffffffffffffffffff1673ffffffffffffffffffffffffffffffffffffffff16815260200191505060405180910390f35b60035481565b600080600654600019168484604051602001808383808284378201915050925050506040516020818303038152906040526040518082805190602001908083835b60208310151561044c5780518252602082019150602081019050602083039250610427565b6001836020036101000a03801982511681845116808217855250505050505090500191505060405180910390206000191614151561048957600080fd5b6004546000809054906101000a900473ffffffffffffffffffffffffffffffffffffffff1673ffffffffffffffffffffffffffffffffffffffff166370a08231336040518263ffffffff167c0100000000000000000000000000000000000000000000000000000000028152600401808273ffffffffffffffffffffffffffffffffffffffff1673ffffffffffffffffffffffffffffffffffffffff168152602001915050602060405180830381600087803b15801561054857600080fd5b505af115801561055c573d6000803e3d6000fd5b505050506040513d602081101561057257600080fd5b810190808051906020019092919050505010156107bc576106946000809054906101000a900473ffffffffffffffffffffffffffffffffffffffff1673ffffffffffffffffffffffffffffffffffffffff166370a08231336040518263ffffffff167c0100000000000000000000000000000000000000000000000000000000028152600401808273ffffffffffffffffffffffffffffffffffffffff1673ffffffffffffffffffffffffffffffffffffffff168152602001915050602060405180830381600087803b15801561064857600080fd5b505af115801561065c573d6000803e3d6000fd5b505050506040513d602081101561067257600080fd5b81019080805190602001909291905050506004546112f190919063ffffffff16565b91506106ab826002546112f190919063ffffffff16565b6002819055506000809054906101000a900473ffffffffffffffffffffffffffffffffffffffff1673ffffffffffffffffffffffffffffffffffffffff1663a9059cbb33846040518363ffffffff167c0100000000000000000000000000000000000000000000000000000000028152600401808373ffffffffffffffffffffffffffffffffffffffff1673ffffffffffffffffffffffffffffffffffffffff16815260200182815260200192505050602060405180830381600087803b15801561077557600080fd5b505af1158015610789573d6000803e3d6000fd5b505050506040513d602081101561079f57600080fd5b810190808051906020019092919050505015156107bb57600080fd5b5b6005543373ffffffffffffffffffffffffffffffffffffffff1631101561086e576108093373ffffffffffffffffffffffffffffffffffffffff16316005546112f190919063ffffffff16565b9050610820816003546112f190919063ffffffff16565b6003819055503373ffffffffffffffffffffffffffffffffffffffff166108fc829081150290604051600060405180830381858888f1935050505015801561086c573d6000803e3d6000fd5b505b7fda9a10d7b992511ddadbfc7ff712c1424ce2058bbcdac8c9876d6f8de590d43f338383604051808473ffffffffffffffffffffffffffffffffffffffff1673ffffffffffffffffffffffffffffffffffffffff168152602001838152602001828152602001935050505060405180910390a150505050565b60055481565b600160009054906101000a900473ffffffffffffffffffffffffffffffffffffffff1681565b6000600160009054906101000a900473ffffffffffffffffffffffffffffffffffffffff1673ffffffffffffffffffffffffffffffffffffffff16633b7bfda03360405160200180807f6f776e65720000000000000000000000000000000000000000000000000000008152506005018273ffffffffffffffffffffffffffffffffffffffff1673ffffffffffffffffffffffffffffffffffffffff166c010000000000000000000000000281526014019150506040516020818303038152906040526040518082805190602001908083835b602083101515610a0b57805182526020820191506020810190506020830392506109e6565b6001836020036101000a03801982511681845116808217855250505050505090500191505060405180910390206040518263ffffffff167c0100000000000000000000000000000000000000000000000000000000028152600401808260001916600019168152602001915050602060405180830381600087803b158015610a9257600080fd5b505af1158015610aa6573d6000803e3d6000fd5b505050506040513d6020811015610abc57600080fd5b81019080805190602001909291905050501515610ad857600080fd5b6000809054906101000a900473ffffffffffffffffffffffffffffffffffffffff1673ffffffffffffffffffffffffffffffffffffffff1663a9059cbb336003546040518363ffffffff167c0100000000000000000000000000000000000000000000000000000000028152600401808373ffffffffffffffffffffffffffffffffffffffff1673ffffffffffffffffffffffffffffffffffffffff16815260200182815260200192505050602060405180830381600087803b158015610b9e57600080fd5b505af1158015610bb2573d6000803e3d6000fd5b505050506040513d6020811015610bc857600080fd5b81019080805190602001909291905050501515610be457600080fd5b3373ffffffffffffffffffffffffffffffffffffffff16ff5b3373ffffffffffffffffffffffffffffffffffffffff168373ffffffffffffffffffffffffffffffffffffffff16148015610c8457506000809054906101000a900473ffffffffffffffffffffffffffffffffffffffff1673ffffffffffffffffffffffffffffffffffffffff168373ffffffffffffffffffffffffffffffffffffffff16145b1515610c8f57600080fd5b6000809054906101000a900473ffffffffffffffffffffffffffffffffffffffff1673ffffffffffffffffffffffffffffffffffffffff166323b872dd8630876040518463ffffffff167c0100000000000000000000000000000000000000000000000000000000028152600401808473ffffffffffffffffffffffffffffffffffffffff1673ffffffffffffffffffffffffffffffffffffffff1681526020018373ffffffffffffffffffffffffffffffffffffffff1673ffffffffffffffffffffffffffffffffffffffff1681526020018281526020019350505050602060405180830381600087803b158015610d8757600080fd5b505af1158015610d9b573d6000803e3d6000fd5b505050506040513d6020811015610db157600080fd5b81019080805190602001909291905050501515610dcd57600080fd5b610de28460025461130a90919063ffffffff16565b6002819055507f2e5b2de4d94f60cc34fd1409c5b8eee3113137a5a40956b4197ff214e9ece3f985858484604051808573ffffffffffffffffffffffffffffffffffffffff1673ffffffffffffffffffffffffffffffffffffffff16815260200184815260200180602001828103825284848281815260200192508082843782019150509550505050505060405180910390a15050505050565b6000600160009054906101000a900473ffffffffffffffffffffffffffffffffffffffff1673ffffffffffffffffffffffffffffffffffffffff16633b7bfda03360405160200180807f6f776e65720000000000000000000000000000000000000000000000000000008152506005018273ffffffffffffffffffffffffffffffffffffffff1673ffffffffffffffffffffffffffffffffffffffff166c010000000000000000000000000281526014019150506040516020818303038152906040526040518082805190602001908083835b602083101515610f745780518252602082019150602081019050602083039250610f4f565b6001836020036101000a03801982511681845116808217855250505050505090500191505060405180910390206040518263ffffffff167c0100000000000000000000000000000000000000000000000000000000028152600401808260001916600019168152602001915050602060405180830381600087803b158015610ffb57600080fd5b505af115801561100f573d6000803e3d6000fd5b505050506040513d602081101561102557600080fd5b8101908080519060200190929190505050151561104157600080fd5b82600581905550816004819055506001905092915050565b60025481565b6000600160009054906101000a900473ffffffffffffffffffffffffffffffffffffffff1673ffffffffffffffffffffffffffffffffffffffff16633b7bfda03360405160200180807f6f776e65720000000000000000000000000000000000000000000000000000008152506005018273ffffffffffffffffffffffffffffffffffffffff1673ffffffffffffffffffffffffffffffffffffffff166c010000000000000000000000000281526014019150506040516020818303038152906040526040518082805190602001908083835b6020831015156111575780518252602082019150602081019050602083039250611132565b6001836020036101000a03801982511681845116808217855250505050505090500191505060405180910390206040518263ffffffff167c0100000000000000000000000000000000000000000000000000000000028152600401808260001916600019168152602001915050602060405180830381600087803b1580156111de57600080fd5b505af11580156111f2573d6000803e3d6000fd5b505050506040513d602081101561120857600080fd5b8101908080519060200190929190505050151561122457600080fd5b816006816000191690555060019050919050565b60045481565b6112533460035461130a90919063ffffffff16565b6003819055507f512feffb6d2e29aab74dc85ee1ad4f85dfc554a45da6e26d59639451afce59c53334604051808373ffffffffffffffffffffffffffffffffffffffff1673ffffffffffffffffffffffffffffffffffffffff1681526020018281526020019250505060405180910390a1565b60075481565b6000809054906101000a900473ffffffffffffffffffffffffffffffffffffffff1681565b60008282111515156112ff57fe5b818303905092915050565b600080828401905083811015151561131e57fe5b80915050929150505600a165627a7a7230582077d788a37313c8efc727adfa800731507968fd22069e05ad8839816a2ff3338a0029",
  "source": "pragma solidity 0.4.24;\n\nimport \"./SafeMath.sol\";\n\ninterface DB { function boolStorage(bytes32 _key) external view returns (bool); }\ninterface Token {\n   function balanceOf(address _tokenHolder) external view returns (uint);\n   function transfer(address _to, uint _amount) external returns (bool);\n   function transferFrom(address _from, address _to, uint _amount) external returns (bool);\n }\n\n// @notice Registers users and provides them with a minimum amount of MYB and Ether\n// Note: Not secure. Use for test-net only.\ncontract TokenFaucet {\n  using SafeMath for uint;\n\n  Token public token;\n  DB public database;\n\n  uint public tokenBalance;\n  uint public weiBalance;\n\n  uint public dripAmountToken = uint256(10e21);     // User should have at least 10,000 MYB\n  uint public dripAmountWEI = 500 finney;    // User should have at least .5 Ether\n\n  bytes32 private accessPass;\n\n  uint public oneYear = uint(31536000);    // 365 days in seconds\n\n\n  constructor(address _database, address _tokenAddress, bytes32 _accessPass)\n  public  {\n    database = DB(_database);\n    token = Token(_tokenAddress);\n    accessPass = _accessPass;\n  }\n\n  // For owner to deposit tokens easier\n  // @dev call Token.receiveAndCall(_spender=mybFaucet.address, _amount * 10^18, StandardToken.address, 0x0)\n  function receiveApproval(address _from, uint _amount, address _token, bytes _data)\n  external {\n    require(_token == msg.sender && _token == address(token));\n    require(token.transferFrom(_from, this, _amount));\n    tokenBalance = tokenBalance.add(_amount);\n    emit LogTokenDeposited(_from, _amount, _data);\n  }\n\n  // Can deposit more WEI in here\n  function depositWEI()\n  external\n  payable {\n    weiBalance = weiBalance.add(msg.value);\n    emit LogEthDeposited(msg.sender, msg.value);\n  }\n\n    // Lazy defence. accessPass is mild deterent, not secure.\n  function withdraw(string _pass)\n  external {\n    require (keccak256(abi.encodePacked(_pass)) == accessPass);\n    if (token.balanceOf(msg.sender) < dripAmountToken) {\n      uint tokenAmount = dripAmountToken.sub(token.balanceOf(msg.sender));\n      tokenBalance = tokenBalance.sub(tokenAmount);\n      require(token.transfer(msg.sender, tokenAmount));\n    }\n    if (msg.sender.balance < dripAmountWEI) {\n      uint amountWEI = dripAmountWEI.sub(msg.sender.balance);\n      weiBalance = weiBalance.sub(amountWEI);\n      msg.sender.transfer(amountWEI);\n    }\n    emit LogWithdraw(msg.sender, tokenAmount, amountWEI);\n  }\n\n  function changePass(bytes32 _newPass)\n  external\n  anyOwner\n  returns (bool) {\n    accessPass = _newPass;\n    return true;\n  }\n\n  function changeDripAmounts(uint _newAmountWEI, uint _newAmountMYB)\n  external\n  anyOwner\n  returns (bool) {\n    dripAmountWEI = _newAmountWEI;\n    dripAmountToken = _newAmountMYB;\n    return true;\n  }\n\n  function destroy()\n  external\n  anyOwner\n  returns (bool) {\n    require(token.transfer(msg.sender, weiBalance));\n    selfdestruct(msg.sender);\n    return true;\n  }\n  //------------------------------------------------------------------------------------------------------------------\n  // Verify that the sender is a registered owner\n  //------------------------------------------------------------------------------------------------------------------\n  modifier anyOwner {\n    require(database.boolStorage(keccak256(abi.encodePacked(\"owner\", msg.sender))));\n    _;\n  }\n\n  event LogWithdraw(address _sender, uint _amountToken, uint _amountWEI);\n  event LogTokenDeposited(address _depositer, uint _amount, bytes _data);\n  event LogEthDeposited(address _depositer, uint _amountWEI);\n}\n",
  "sourcePath": "/home/dog/code/mybit/faucet/contracts/TokenFaucet.sol",
  "compiler": {
    "name": "solc",
    "version": "0.4.24+commit.e67f0147.Emscripten.clang"
  },
  "schemaVersion": "2.0.1",
  "updatedAt": "2018-10-15T14:46:15.163Z"
}