{
  "contractName": "TokenFaucet",
  "abi": [
    {
      "constant": true,
      "inputs": [],
      "name": "balanceWEI",
      "outputs": [
        {
          "name": "",
          "type": "uint256"
        }
      ],
      "payable": false,
      "stateMutability": "view",
      "type": "function"
    },
    {
      "constant": true,
      "inputs": [],
      "name": "dripAmountWEI",
      "outputs": [
        {
          "name": "",
          "type": "uint256"
        }
      ],
      "payable": false,
      "stateMutability": "view",
      "type": "function"
    },
    {
      "constant": true,
      "inputs": [],
      "name": "tokensInFaucet",
      "outputs": [
        {
          "name": "",
          "type": "uint256"
        }
      ],
      "payable": false,
      "stateMutability": "view",
      "type": "function"
    },
    {
      "constant": true,
      "inputs": [],
      "name": "database",
      "outputs": [
        {
          "name": "",
          "type": "address"
        }
      ],
      "payable": false,
      "stateMutability": "view",
      "type": "function"
    },
    {
      "constant": true,
      "inputs": [],
      "name": "dripAmountToken",
      "outputs": [
        {
          "name": "",
          "type": "uint256"
        }
      ],
      "payable": false,
      "stateMutability": "view",
      "type": "function"
    },
    {
      "constant": true,
      "inputs": [],
      "name": "oneYear",
      "outputs": [
        {
          "name": "",
          "type": "uint256"
        }
      ],
      "payable": false,
      "stateMutability": "view",
      "type": "function"
    },
    {
      "constant": true,
      "inputs": [],
      "name": "token",
      "outputs": [
        {
          "name": "",
          "type": "address"
        }
      ],
      "payable": false,
      "stateMutability": "view",
      "type": "function"
    },
    {
      "inputs": [
        {
          "name": "_database",
          "type": "address"
        },
        {
          "name": "_tokenAddress",
          "type": "address"
        },
        {
          "name": "_accessPass",
          "type": "bytes32"
        }
      ],
      "payable": false,
      "stateMutability": "nonpayable",
      "type": "constructor"
    },
    {
      "anonymous": false,
      "inputs": [
        {
          "indexed": false,
          "name": "_sender",
          "type": "address"
        },
        {
          "indexed": false,
          "name": "_amountToken",
          "type": "uint256"
        },
        {
          "indexed": false,
          "name": "_amountWEI",
          "type": "uint256"
        }
      ],
      "name": "LogWithdraw",
      "type": "event"
    },
    {
      "anonymous": false,
      "inputs": [
        {
          "indexed": false,
          "name": "_depositer",
          "type": "address"
        },
        {
          "indexed": false,
          "name": "_amount",
          "type": "uint256"
        },
        {
          "indexed": false,
          "name": "_data",
          "type": "bytes"
        }
      ],
      "name": "LogTokenDeposited",
      "type": "event"
    },
    {
      "anonymous": false,
      "inputs": [
        {
          "indexed": false,
          "name": "_depositer",
          "type": "address"
        },
        {
          "indexed": false,
          "name": "_amountWEI",
          "type": "uint256"
        }
      ],
      "name": "LogEthDeposited",
      "type": "event"
    },
    {
      "anonymous": false,
      "inputs": [
        {
          "indexed": false,
          "name": "_withdrawer",
          "type": "address"
        },
        {
          "indexed": false,
          "name": "_amountWEI",
          "type": "uint256"
        }
      ],
      "name": "LogEthWithdraw",
      "type": "event"
    },
    {
      "anonymous": false,
      "inputs": [
        {
          "indexed": false,
          "name": "_user",
          "type": "address"
        }
      ],
      "name": "LogNewUser",
      "type": "event"
    },
    {
      "constant": false,
      "inputs": [
        {
          "name": "_from",
          "type": "address"
        },
        {
          "name": "_amount",
          "type": "uint256"
        },
        {
          "name": "_token",
          "type": "address"
        },
        {
          "name": "_data",
          "type": "bytes"
        }
      ],
      "name": "receiveApproval",
      "outputs": [],
      "payable": false,
      "stateMutability": "nonpayable",
      "type": "function"
    },
    {
      "constant": false,
      "inputs": [],
      "name": "depositWEI",
      "outputs": [],
      "payable": true,
      "stateMutability": "payable",
      "type": "function"
    },
    {
      "constant": false,
      "inputs": [
        {
          "name": "_pass",
          "type": "string"
        }
      ],
      "name": "withdraw",
      "outputs": [],
      "payable": false,
      "stateMutability": "nonpayable",
      "type": "function"
    },
    {
      "constant": false,
      "inputs": [
        {
          "name": "_newPass",
          "type": "bytes32"
        }
      ],
      "name": "changePass",
      "outputs": [
        {
          "name": "",
          "type": "bool"
        }
      ],
      "payable": false,
      "stateMutability": "nonpayable",
      "type": "function"
    },
    {
      "constant": false,
      "inputs": [
        {
          "name": "_newAmountWEI",
          "type": "uint256"
        },
        {
          "name": "_newAmountMYB",
          "type": "uint256"
        }
      ],
      "name": "changeDripAmounts",
      "outputs": [
        {
          "name": "",
          "type": "bool"
        }
      ],
      "payable": false,
      "stateMutability": "nonpayable",
      "type": "function"
    }
  ],
  "bytecode": "0x608060405269021e19e0c9bab24000006004556706f05b59d3b200006005556301e1338060075534801561003257600080fd5b5060405160608061112d83398101806040528101908080519060200190929190805190602001909291908051906020019092919050505082600160006101000a81548173ffffffffffffffffffffffffffffffffffffffff021916908373ffffffffffffffffffffffffffffffffffffffff160217905550816000806101000a81548173ffffffffffffffffffffffffffffffffffffffff021916908373ffffffffffffffffffffffffffffffffffffffff1602179055508060068160001916905550505050611026806101076000396000f3006080604052600436106100ba576000357c0100000000000000000000000000000000000000000000000000000000900463ffffffff1680630efec2c8146100bf57806331fb67c2146100ea578063443ea6a21461012557806369b384f114610150578063713b563f1461017b5780638f4ffcb1146101d25780639d7a63e914610257578063a707ce55146102a6578063c10726fb146102ef578063c3c5026c1461031a578063f27c3bf614610324578063fc0c546a1461034f575b600080fd5b3480156100cb57600080fd5b506100d46103a6565b6040518082815260200191505060405180910390f35b3480156100f657600080fd5b506101236004803603810190808035906020019082018035906020019190919293919293905050506103ac565b005b34801561013157600080fd5b5061013a6108a3565b6040518082815260200191505060405180910390f35b34801561015c57600080fd5b506101656108a9565b6040518082815260200191505060405180910390f35b34801561018757600080fd5b506101906108af565b604051808273ffffffffffffffffffffffffffffffffffffffff1673ffffffffffffffffffffffffffffffffffffffff16815260200191505060405180910390f35b3480156101de57600080fd5b50610255600480360381019080803573ffffffffffffffffffffffffffffffffffffffff16906020019092919080359060200190929190803573ffffffffffffffffffffffffffffffffffffffff1690602001909291908035906020019082018035906020019190919293919293905050506108d5565b005b34801561026357600080fd5b5061028c6004803603810190808035906020019092919080359060200190929190505050610b54565b604051808215151515815260200191505060405180910390f35b3480156102b257600080fd5b506102d56004803603810190808035600019169060200190929190505050610d31565b604051808215151515815260200191505060405180910390f35b3480156102fb57600080fd5b50610304610f0a565b6040518082815260200191505060405180910390f35b610322610f10565b005b34801561033057600080fd5b50610339610f98565b6040518082815260200191505060405180910390f35b34801561035b57600080fd5b50610364610f9e565b604051808273ffffffffffffffffffffffffffffffffffffffff1673ffffffffffffffffffffffffffffffffffffffff16815260200191505060405180910390f35b60035481565b600080600654600019168484604051602001808383808284378201915050925050506040516020818303038152906040526040518082805190602001908083835b60208310151561041257805182526020820191506020810190506020830392506103ed565b6001836020036101000a03801982511681845116808217855250505050505090500191505060405180910390206000191614151561044f57600080fd5b6004546000809054906101000a900473ffffffffffffffffffffffffffffffffffffffff1673ffffffffffffffffffffffffffffffffffffffff166370a08231336040518263ffffffff167c0100000000000000000000000000000000000000000000000000000000028152600401808273ffffffffffffffffffffffffffffffffffffffff1673ffffffffffffffffffffffffffffffffffffffff168152602001915050602060405180830381600087803b15801561050e57600080fd5b505af1158015610522573d6000803e3d6000fd5b505050506040513d602081101561053857600080fd5b810190808051906020019092919050505010156107785761065a6000809054906101000a900473ffffffffffffffffffffffffffffffffffffffff1673ffffffffffffffffffffffffffffffffffffffff166370a08231336040518263ffffffff167c0100000000000000000000000000000000000000000000000000000000028152600401808273ffffffffffffffffffffffffffffffffffffffff1673ffffffffffffffffffffffffffffffffffffffff168152602001915050602060405180830381600087803b15801561060e57600080fd5b505af1158015610622573d6000803e3d6000fd5b505050506040513d602081101561063857600080fd5b8101908080519060200190929190505050600454610fc390919063ffffffff16565b915061067182600254610fc390919063ffffffff16565b6002819055506000809054906101000a900473ffffffffffffffffffffffffffffffffffffffff1673ffffffffffffffffffffffffffffffffffffffff1663a9059cbb33846040518363ffffffff167c0100000000000000000000000000000000000000000000000000000000028152600401808373ffffffffffffffffffffffffffffffffffffffff1673ffffffffffffffffffffffffffffffffffffffff16815260200182815260200192505050602060405180830381600087803b15801561073b57600080fd5b505af115801561074f573d6000803e3d6000fd5b505050506040513d602081101561076557600080fd5b8101908080519060200190929190505050505b6005543373ffffffffffffffffffffffffffffffffffffffff1631101561082a576107c53373ffffffffffffffffffffffffffffffffffffffff1631600554610fc390919063ffffffff16565b90506107dc81600354610fc390919063ffffffff16565b6003819055503373ffffffffffffffffffffffffffffffffffffffff166108fc829081150290604051600060405180830381858888f19350505050158015610828573d6000803e3d6000fd5b505b7fda9a10d7b992511ddadbfc7ff712c1424ce2058bbcdac8c9876d6f8de590d43f338383604051808473ffffffffffffffffffffffffffffffffffffffff1673ffffffffffffffffffffffffffffffffffffffff168152602001838152602001828152602001935050505060405180910390a150505050565b60055481565b60025481565b600160009054906101000a900473ffffffffffffffffffffffffffffffffffffffff1681565b3373ffffffffffffffffffffffffffffffffffffffff168373ffffffffffffffffffffffffffffffffffffffff1614801561095c57506000809054906101000a900473ffffffffffffffffffffffffffffffffffffffff1673ffffffffffffffffffffffffffffffffffffffff168373ffffffffffffffffffffffffffffffffffffffff16145b151561096757600080fd5b6000809054906101000a900473ffffffffffffffffffffffffffffffffffffffff1673ffffffffffffffffffffffffffffffffffffffff166323b872dd8630876040518463ffffffff167c0100000000000000000000000000000000000000000000000000000000028152600401808473ffffffffffffffffffffffffffffffffffffffff1673ffffffffffffffffffffffffffffffffffffffff1681526020018373ffffffffffffffffffffffffffffffffffffffff1673ffffffffffffffffffffffffffffffffffffffff1681526020018281526020019350505050602060405180830381600087803b158015610a5f57600080fd5b505af1158015610a73573d6000803e3d6000fd5b505050506040513d6020811015610a8957600080fd5b81019080805190602001909291905050501515610aa557600080fd5b610aba84600254610fdc90919063ffffffff16565b6002819055507f2e5b2de4d94f60cc34fd1409c5b8eee3113137a5a40956b4197ff214e9ece3f985858484604051808573ffffffffffffffffffffffffffffffffffffffff1673ffffffffffffffffffffffffffffffffffffffff16815260200184815260200180602001828103825284848281815260200192508082843782019150509550505050505060405180910390a15050505050565b6000600160009054906101000a900473ffffffffffffffffffffffffffffffffffffffff1673ffffffffffffffffffffffffffffffffffffffff16633b7bfda03360405160200180807f6f776e65720000000000000000000000000000000000000000000000000000008152506005018273ffffffffffffffffffffffffffffffffffffffff1673ffffffffffffffffffffffffffffffffffffffff166c010000000000000000000000000281526014019150506040516020818303038152906040526040518082805190602001908083835b602083101515610c4c5780518252602082019150602081019050602083039250610c27565b6001836020036101000a03801982511681845116808217855250505050505090500191505060405180910390206040518263ffffffff167c0100000000000000000000000000000000000000000000000000000000028152600401808260001916600019168152602001915050602060405180830381600087803b158015610cd357600080fd5b505af1158015610ce7573d6000803e3d6000fd5b505050506040513d6020811015610cfd57600080fd5b81019080805190602001909291905050501515610d1957600080fd5b82600581905550816004819055506001905092915050565b6000600160009054906101000a900473ffffffffffffffffffffffffffffffffffffffff1673ffffffffffffffffffffffffffffffffffffffff16633b7bfda03360405160200180807f6f776e65720000000000000000000000000000000000000000000000000000008152506005018273ffffffffffffffffffffffffffffffffffffffff1673ffffffffffffffffffffffffffffffffffffffff166c010000000000000000000000000281526014019150506040516020818303038152906040526040518082805190602001908083835b602083101515610e295780518252602082019150602081019050602083039250610e04565b6001836020036101000a03801982511681845116808217855250505050505090500191505060405180910390206040518263ffffffff167c0100000000000000000000000000000000000000000000000000000000028152600401808260001916600019168152602001915050602060405180830381600087803b158015610eb057600080fd5b505af1158015610ec4573d6000803e3d6000fd5b505050506040513d6020811015610eda57600080fd5b81019080805190602001909291905050501515610ef657600080fd5b816006816000191690555060019050919050565b60045481565b610f2534600354610fdc90919063ffffffff16565b6003819055507f512feffb6d2e29aab74dc85ee1ad4f85dfc554a45da6e26d59639451afce59c53334604051808373ffffffffffffffffffffffffffffffffffffffff1673ffffffffffffffffffffffffffffffffffffffff1681526020018281526020019250505060405180910390a1565b60075481565b6000809054906101000a900473ffffffffffffffffffffffffffffffffffffffff1681565b6000828211151515610fd157fe5b818303905092915050565b6000808284019050838110151515610ff057fe5b80915050929150505600a165627a7a723058204b1020f29b8929daa1bafd3ef20e9cb5bbb988ae29aac118e7ba4095188ec4e70029",
  "source": "pragma solidity 0.4.24;\n\nimport \"./SafeMath.sol\";\n\ninterface DB { function boolStorage(bytes32 _key) external view returns (bool); }\ninterface Token {\n   function balanceOf(address _tokenHolder) external view returns (uint);\n   function transfer(address _to, uint _amount) external returns (bool);\n   function transferFrom(address _from, address _to, uint _amount) external returns (bool);\n }\n\n// @notice Registers users and provides them with a minimum amount of MYB and Ether\n// Note: Not secure. Use for test-net only.\ncontract TokenFaucet {\n  using SafeMath for uint;\n\n  Token public token;\n  DB public database;\n\n  uint public tokensInFaucet;\n  uint public balanceWEI;\n\n  uint public dripAmountToken = uint(10e21);     // User should have at least 10,000 MYB\n  uint public dripAmountWEI = 500 finney;    // User should have at least .5 Ether\n\n  bytes32 private accessPass;\n\n  uint public oneYear = uint(31536000);    // 365 days in seconds\n\n\n  constructor(address _database, address _tokenAddress, bytes32 _accessPass)\n  public  {\n    database = DB(_database);\n    token = Token(_tokenAddress);\n    accessPass = _accessPass;\n  }\n\n  // For owner to deposit tokens easier\n  // @dev call Token.receiveAndCall(_spender=mybFaucet.address, _amount * 10^18, StandardToken.address, 0x0)\n  function receiveApproval(address _from, uint _amount, address _token, bytes _data)\n  external {\n    require(_token == msg.sender && _token == address(token));\n    require(token.transferFrom(_from, this, _amount));\n    tokensInFaucet = tokensInFaucet.add(_amount);\n    emit LogTokenDeposited(_from, _amount, _data);\n  }\n\n  // Can deposit more WEI in here\n  function depositWEI()\n  external\n  payable {\n    balanceWEI = balanceWEI.add(msg.value);\n    emit LogEthDeposited(msg.sender, msg.value);\n  }\n\n    // Lazy defence. accessPass is mild deterent, not secure.\n  function withdraw(string _pass)\n  external {\n    require (keccak256(abi.encodePacked(_pass)) == accessPass);\n    if (token.balanceOf(msg.sender) < dripAmountToken) {\n      uint amountMYB = dripAmountToken.sub(token.balanceOf(msg.sender));\n      tokensInFaucet = tokensInFaucet.sub(amountMYB);\n      token.transfer(msg.sender, amountMYB);\n    }\n    if (msg.sender.balance < dripAmountWEI) {\n      uint amountWEI = dripAmountWEI.sub(msg.sender.balance);\n      balanceWEI = balanceWEI.sub(amountWEI);\n      msg.sender.transfer(amountWEI);\n    }\n    emit LogWithdraw(msg.sender, amountMYB, amountWEI);\n  }\n\n  function changePass(bytes32 _newPass)\n  external\n  anyOwner\n  returns (bool) {\n    accessPass = _newPass;\n    return true;\n  }\n\n  function changeDripAmounts(uint _newAmountWEI, uint _newAmountMYB)\n  external\n  anyOwner\n  returns (bool) {\n    dripAmountWEI = _newAmountWEI;\n    dripAmountToken = _newAmountMYB;\n    return true;\n  }\n\n  //------------------------------------------------------------------------------------------------------------------\n  // Verify that the sender is a registered owner\n  //------------------------------------------------------------------------------------------------------------------\n  modifier anyOwner {\n    require(database.boolStorage(keccak256(abi.encodePacked(\"owner\", msg.sender))));\n    _;\n  }\n\n  event LogWithdraw(address _sender, uint _amountToken, uint _amountWEI);\n  event LogTokenDeposited(address _depositer, uint _amount, bytes _data);\n  event LogEthDeposited(address _depositer, uint _amountWEI);\n  event LogEthWithdraw(address _withdrawer, uint _amountWEI);\n  event LogNewUser(address _user);\n}\n",
  "sourcePath": "/home/dog/code/mybit/faucet/contracts/TokenFaucet.sol",
  "compiler": {
    "name": "solc",
    "version": "0.4.24+commit.e67f0147.Emscripten.clang"
  },
  "schemaVersion": "2.0.1",
  "updatedAt": "2018-10-15T08:44:14.014Z"
}