{
  "contractName": "TokenFaucet",
  "abi": [
    {
      "constant": true,
      "inputs": [],
      "name": "weiBalance",
      "outputs": [
        {
          "name": "",
          "type": "uint256"
        }
      ],
      "payable": false,
      "stateMutability": "view",
      "type": "function"
    },
    {
      "constant": true,
      "inputs": [],
      "name": "tokenDripAmount",
      "outputs": [
        {
          "name": "",
          "type": "uint256"
        }
      ],
      "payable": false,
      "stateMutability": "view",
      "type": "function"
    },
    {
      "constant": true,
      "inputs": [],
      "name": "database",
      "outputs": [
        {
          "name": "",
          "type": "address"
        }
      ],
      "payable": false,
      "stateMutability": "view",
      "type": "function"
    },
    {
      "constant": true,
      "inputs": [],
      "name": "weiDripAmount",
      "outputs": [
        {
          "name": "",
          "type": "uint256"
        }
      ],
      "payable": false,
      "stateMutability": "view",
      "type": "function"
    },
    {
      "constant": true,
      "inputs": [],
      "name": "tokenBalance",
      "outputs": [
        {
          "name": "",
          "type": "uint256"
        }
      ],
      "payable": false,
      "stateMutability": "view",
      "type": "function"
    },
    {
      "constant": true,
      "inputs": [],
      "name": "oneYear",
      "outputs": [
        {
          "name": "",
          "type": "uint256"
        }
      ],
      "payable": false,
      "stateMutability": "view",
      "type": "function"
    },
    {
      "constant": true,
      "inputs": [],
      "name": "token",
      "outputs": [
        {
          "name": "",
          "type": "address"
        }
      ],
      "payable": false,
      "stateMutability": "view",
      "type": "function"
    },
    {
      "inputs": [
        {
          "name": "_database",
          "type": "address"
        },
        {
          "name": "_tokenAddress",
          "type": "address"
        },
        {
          "name": "_accessPass",
          "type": "bytes32"
        }
      ],
      "payable": false,
      "stateMutability": "nonpayable",
      "type": "constructor"
    },
    {
      "anonymous": false,
      "inputs": [
        {
          "indexed": false,
          "name": "_sender",
          "type": "address"
        },
        {
          "indexed": false,
          "name": "_amountToken",
          "type": "uint256"
        },
        {
          "indexed": false,
          "name": "_amountWEI",
          "type": "uint256"
        }
      ],
      "name": "LogWithdraw",
      "type": "event"
    },
    {
      "anonymous": false,
      "inputs": [
        {
          "indexed": false,
          "name": "_depositer",
          "type": "address"
        },
        {
          "indexed": false,
          "name": "_amount",
          "type": "uint256"
        },
        {
          "indexed": false,
          "name": "_data",
          "type": "bytes"
        }
      ],
      "name": "LogTokenDeposited",
      "type": "event"
    },
    {
      "anonymous": false,
      "inputs": [
        {
          "indexed": false,
          "name": "_depositer",
          "type": "address"
        },
        {
          "indexed": false,
          "name": "_amountWEI",
          "type": "uint256"
        }
      ],
      "name": "LogEthDeposited",
      "type": "event"
    },
    {
      "constant": false,
      "inputs": [
        {
          "name": "_from",
          "type": "address"
        },
        {
          "name": "_amount",
          "type": "uint256"
        },
        {
          "name": "_token",
          "type": "address"
        },
        {
          "name": "_data",
          "type": "bytes"
        }
      ],
      "name": "receiveApproval",
      "outputs": [],
      "payable": false,
      "stateMutability": "nonpayable",
      "type": "function"
    },
    {
      "constant": false,
      "inputs": [],
      "name": "depositWEI",
      "outputs": [],
      "payable": true,
      "stateMutability": "payable",
      "type": "function"
    },
    {
      "constant": false,
      "inputs": [
        {
          "name": "_pass",
          "type": "string"
        }
      ],
      "name": "withdraw",
      "outputs": [
        {
          "name": "",
          "type": "bool"
        }
      ],
      "payable": false,
      "stateMutability": "nonpayable",
      "type": "function"
    },
    {
      "constant": false,
      "inputs": [
        {
          "name": "_newPass",
          "type": "bytes32"
        }
      ],
      "name": "changePass",
      "outputs": [
        {
          "name": "",
          "type": "bool"
        }
      ],
      "payable": false,
      "stateMutability": "nonpayable",
      "type": "function"
    },
    {
      "constant": false,
      "inputs": [
        {
          "name": "_newAmountWEI",
          "type": "uint256"
        },
        {
          "name": "_newAmountMYB",
          "type": "uint256"
        }
      ],
      "name": "changeDripAmounts",
      "outputs": [
        {
          "name": "",
          "type": "bool"
        }
      ],
      "payable": false,
      "stateMutability": "nonpayable",
      "type": "function"
    },
    {
      "constant": false,
      "inputs": [],
      "name": "destroy",
      "outputs": [
        {
          "name": "",
          "type": "bool"
        }
      ],
      "payable": false,
      "stateMutability": "nonpayable",
      "type": "function"
    }
  ],
  "bytecode": "0x608060405269021e19e0c9bab24000006004556706f05b59d3b200006005556301e1338060075534801561003257600080fd5b5060405160608061147b83398101806040528101908080519060200190929190805190602001909291908051906020019092919050505082600160006101000a81548173ffffffffffffffffffffffffffffffffffffffff021916908373ffffffffffffffffffffffffffffffffffffffff160217905550816000806101000a81548173ffffffffffffffffffffffffffffffffffffffff021916908373ffffffffffffffffffffffffffffffffffffffff1602179055508060068160001916905550505050611374806101076000396000f3006080604052600436106100c5576000357c0100000000000000000000000000000000000000000000000000000000900463ffffffff1680632969d202146100ca57806331fb67c2146100f55780636ff18ab914610148578063713b563f1461017357806383197ef0146101ca57806384ebc438146101f95780638f4ffcb1146102245780639d7a63e9146102a95780639e1a4d19146102f8578063a707ce5514610323578063c3c5026c1461036c578063f27c3bf614610376578063fc0c546a146103a1575b600080fd5b3480156100d657600080fd5b506100df6103f8565b6040518082815260200191505060405180910390f35b34801561010157600080fd5b5061012e6004803603810190808035906020019082018035906020019190919293919293905050506103fe565b604051808215151515815260200191505060405180910390f35b34801561015457600080fd5b5061015d610907565b6040518082815260200191505060405180910390f35b34801561017f57600080fd5b5061018861090d565b604051808273ffffffffffffffffffffffffffffffffffffffff1673ffffffffffffffffffffffffffffffffffffffff16815260200191505060405180910390f35b3480156101d657600080fd5b506101df610933565b604051808215151515815260200191505060405180910390f35b34801561020557600080fd5b5061020e610c1d565b6040518082815260200191505060405180910390f35b34801561023057600080fd5b506102a7600480360381019080803573ffffffffffffffffffffffffffffffffffffffff16906020019092919080359060200190929190803573ffffffffffffffffffffffffffffffffffffffff169060200190929190803590602001908201803590602001919091929391929390505050610c23565b005b3480156102b557600080fd5b506102de6004803603810190808035906020019092919080359060200190929190505050610ea2565b604051808215151515815260200191505060405180910390f35b34801561030457600080fd5b5061030d61107f565b6040518082815260200191505060405180910390f35b34801561032f57600080fd5b506103526004803603810190808035600019169060200190929190505050611085565b604051808215151515815260200191505060405180910390f35b61037461125e565b005b34801561038257600080fd5b5061038b6112e6565b6040518082815260200191505060405180910390f35b3480156103ad57600080fd5b506103b66112ec565b604051808273ffffffffffffffffffffffffffffffffffffffff1673ffffffffffffffffffffffffffffffffffffffff16815260200191505060405180910390f35b60035481565b6000806000600654600019168585604051602001808383808284378201915050925050506040516020818303038152906040526040518082805190602001908083835b6020831015156104665780518252602082019150602081019050602083039250610441565b6001836020036101000a0380198251168184511680821785525050505050509050019150506040518091039020600019161415156104a357600080fd5b6004546000809054906101000a900473ffffffffffffffffffffffffffffffffffffffff1673ffffffffffffffffffffffffffffffffffffffff166370a08231336040518263ffffffff167c0100000000000000000000000000000000000000000000000000000000028152600401808273ffffffffffffffffffffffffffffffffffffffff1673ffffffffffffffffffffffffffffffffffffffff168152602001915050602060405180830381600087803b15801561056257600080fd5b505af1158015610576573d6000803e3d6000fd5b505050506040513d602081101561058c57600080fd5b810190808051906020019092919050505010156107d6576106ae6000809054906101000a900473ffffffffffffffffffffffffffffffffffffffff1673ffffffffffffffffffffffffffffffffffffffff166370a08231336040518263ffffffff167c0100000000000000000000000000000000000000000000000000000000028152600401808273ffffffffffffffffffffffffffffffffffffffff1673ffffffffffffffffffffffffffffffffffffffff168152602001915050602060405180830381600087803b15801561066257600080fd5b505af1158015610676573d6000803e3d6000fd5b505050506040513d602081101561068c57600080fd5b810190808051906020019092919050505060045461131190919063ffffffff16565b91506106c58260025461131190919063ffffffff16565b6002819055506000809054906101000a900473ffffffffffffffffffffffffffffffffffffffff1673ffffffffffffffffffffffffffffffffffffffff1663a9059cbb33846040518363ffffffff167c0100000000000000000000000000000000000000000000000000000000028152600401808373ffffffffffffffffffffffffffffffffffffffff1673ffffffffffffffffffffffffffffffffffffffff16815260200182815260200192505050602060405180830381600087803b15801561078f57600080fd5b505af11580156107a3573d6000803e3d6000fd5b505050506040513d60208110156107b957600080fd5b810190808051906020019092919050505015156107d557600080fd5b5b6005543373ffffffffffffffffffffffffffffffffffffffff16311015610888576108233373ffffffffffffffffffffffffffffffffffffffff163160055461131190919063ffffffff16565b905061083a8160035461131190919063ffffffff16565b6003819055503373ffffffffffffffffffffffffffffffffffffffff166108fc829081150290604051600060405180830381858888f19350505050158015610886573d6000803e3d6000fd5b505b7fda9a10d7b992511ddadbfc7ff712c1424ce2058bbcdac8c9876d6f8de590d43f338383604051808473ffffffffffffffffffffffffffffffffffffffff1673ffffffffffffffffffffffffffffffffffffffff168152602001838152602001828152602001935050505060405180910390a160019250505092915050565b60045481565b600160009054906101000a900473ffffffffffffffffffffffffffffffffffffffff1681565b6000600160009054906101000a900473ffffffffffffffffffffffffffffffffffffffff1673ffffffffffffffffffffffffffffffffffffffff16633b7bfda03360405160200180807f6f776e65720000000000000000000000000000000000000000000000000000008152506005018273ffffffffffffffffffffffffffffffffffffffff1673ffffffffffffffffffffffffffffffffffffffff166c010000000000000000000000000281526014019150506040516020818303038152906040526040518082805190602001908083835b602083101515610a2b5780518252602082019150602081019050602083039250610a06565b6001836020036101000a03801982511681845116808217855250505050505090500191505060405180910390206040518263ffffffff167c0100000000000000000000000000000000000000000000000000000000028152600401808260001916600019168152602001915050602060405180830381600087803b158015610ab257600080fd5b505af1158015610ac6573d6000803e3d6000fd5b505050506040513d6020811015610adc57600080fd5b81019080805190602001909291905050501515610af857600080fd5b6000809054906101000a900473ffffffffffffffffffffffffffffffffffffffff1673ffffffffffffffffffffffffffffffffffffffff1663a9059cbb336003546040518363ffffffff167c0100000000000000000000000000000000000000000000000000000000028152600401808373ffffffffffffffffffffffffffffffffffffffff1673ffffffffffffffffffffffffffffffffffffffff16815260200182815260200192505050602060405180830381600087803b158015610bbe57600080fd5b505af1158015610bd2573d6000803e3d6000fd5b505050506040513d6020811015610be857600080fd5b81019080805190602001909291905050501515610c0457600080fd5b3373ffffffffffffffffffffffffffffffffffffffff16ff5b60055481565b3373ffffffffffffffffffffffffffffffffffffffff168373ffffffffffffffffffffffffffffffffffffffff16148015610caa57506000809054906101000a900473ffffffffffffffffffffffffffffffffffffffff1673ffffffffffffffffffffffffffffffffffffffff168373ffffffffffffffffffffffffffffffffffffffff16145b1515610cb557600080fd5b6000809054906101000a900473ffffffffffffffffffffffffffffffffffffffff1673ffffffffffffffffffffffffffffffffffffffff166323b872dd8630876040518463ffffffff167c0100000000000000000000000000000000000000000000000000000000028152600401808473ffffffffffffffffffffffffffffffffffffffff1673ffffffffffffffffffffffffffffffffffffffff1681526020018373ffffffffffffffffffffffffffffffffffffffff1673ffffffffffffffffffffffffffffffffffffffff1681526020018281526020019350505050602060405180830381600087803b158015610dad57600080fd5b505af1158015610dc1573d6000803e3d6000fd5b505050506040513d6020811015610dd757600080fd5b81019080805190602001909291905050501515610df357600080fd5b610e088460025461132a90919063ffffffff16565b6002819055507f2e5b2de4d94f60cc34fd1409c5b8eee3113137a5a40956b4197ff214e9ece3f985858484604051808573ffffffffffffffffffffffffffffffffffffffff1673ffffffffffffffffffffffffffffffffffffffff16815260200184815260200180602001828103825284848281815260200192508082843782019150509550505050505060405180910390a15050505050565b6000600160009054906101000a900473ffffffffffffffffffffffffffffffffffffffff1673ffffffffffffffffffffffffffffffffffffffff16633b7bfda03360405160200180807f6f776e65720000000000000000000000000000000000000000000000000000008152506005018273ffffffffffffffffffffffffffffffffffffffff1673ffffffffffffffffffffffffffffffffffffffff166c010000000000000000000000000281526014019150506040516020818303038152906040526040518082805190602001908083835b602083101515610f9a5780518252602082019150602081019050602083039250610f75565b6001836020036101000a03801982511681845116808217855250505050505090500191505060405180910390206040518263ffffffff167c0100000000000000000000000000000000000000000000000000000000028152600401808260001916600019168152602001915050602060405180830381600087803b15801561102157600080fd5b505af1158015611035573d6000803e3d6000fd5b505050506040513d602081101561104b57600080fd5b8101908080519060200190929190505050151561106757600080fd5b82600581905550816004819055506001905092915050565b60025481565b6000600160009054906101000a900473ffffffffffffffffffffffffffffffffffffffff1673ffffffffffffffffffffffffffffffffffffffff16633b7bfda03360405160200180807f6f776e65720000000000000000000000000000000000000000000000000000008152506005018273ffffffffffffffffffffffffffffffffffffffff1673ffffffffffffffffffffffffffffffffffffffff166c010000000000000000000000000281526014019150506040516020818303038152906040526040518082805190602001908083835b60208310151561117d5780518252602082019150602081019050602083039250611158565b6001836020036101000a03801982511681845116808217855250505050505090500191505060405180910390206040518263ffffffff167c0100000000000000000000000000000000000000000000000000000000028152600401808260001916600019168152602001915050602060405180830381600087803b15801561120457600080fd5b505af1158015611218573d6000803e3d6000fd5b505050506040513d602081101561122e57600080fd5b8101908080519060200190929190505050151561124a57600080fd5b816006816000191690555060019050919050565b6112733460035461132a90919063ffffffff16565b6003819055507f512feffb6d2e29aab74dc85ee1ad4f85dfc554a45da6e26d59639451afce59c53334604051808373ffffffffffffffffffffffffffffffffffffffff1673ffffffffffffffffffffffffffffffffffffffff1681526020018281526020019250505060405180910390a1565b60075481565b6000809054906101000a900473ffffffffffffffffffffffffffffffffffffffff1681565b600082821115151561131f57fe5b818303905092915050565b600080828401905083811015151561133e57fe5b80915050929150505600a165627a7a72305820285fb6e2774837b7b9343b6208fae297b84fd48bf4cd51093e42c405c9b0f9ad0029",
  "source": "pragma solidity 0.4.24;\n\nimport \"./SafeMath.sol\";\n\ninterface DB { function boolStorage(bytes32 _key) external view returns (bool); }\ninterface Token {\n   function balanceOf(address _tokenHolder) external view returns (uint);\n   function transfer(address _to, uint _amount) external returns (bool);\n   function transferFrom(address _from, address _to, uint _amount) external returns (bool);\n }\n\n// @notice Registers users and provides them with a minimum amount of MYB and Ether\n// Note: Not secure. Use for test-net only.\ncontract TokenFaucet {\n  using SafeMath for uint;\n\n  Token public token;\n  DB public database;\n\n  uint public tokenBalance;\n  uint public weiBalance;\n\n  uint public tokenDripAmount = uint256(10e21);     // User should have at least 10,000 MYB\n  uint public weiDripAmount = 500 finney;    // User should have at least .5 Ether\n\n  bytes32 private accessPass;\n\n  uint public oneYear = uint(31536000);    // 365 days in seconds\n\n\n  constructor(address _database, address _tokenAddress, bytes32 _accessPass)\n  public  {\n    database = DB(_database);\n    token = Token(_tokenAddress);\n    accessPass = _accessPass;\n  }\n\n  // For owner to deposit tokens easier\n  // @dev call Token.receiveAndCall(_spender=mybFaucet.address, _amount * 10^18, StandardToken.address, 0x0)\n  function receiveApproval(address _from, uint _amount, address _token, bytes _data)\n  external {\n    require(_token == msg.sender && _token == address(token));\n    require(token.transferFrom(_from, this, _amount));\n    tokenBalance = tokenBalance.add(_amount);\n    emit LogTokenDeposited(_from, _amount, _data);\n  }\n\n  // Can deposit more WEI in here\n  function depositWEI()\n  external\n  payable {\n    weiBalance = weiBalance.add(msg.value);\n    emit LogEthDeposited(msg.sender, msg.value);\n  }\n\n    // Lazy defence. accessPass is mild deterent, not secure.\n  function withdraw(string _pass)\n  external\n  returns (bool){\n    require (keccak256(abi.encodePacked(_pass)) == accessPass);\n    if (token.balanceOf(msg.sender) < tokenDripAmount) {\n      uint tokenAmount = tokenDripAmount.sub(token.balanceOf(msg.sender));\n      tokenBalance = tokenBalance.sub(tokenAmount);\n      require(token.transfer(msg.sender, tokenAmount));\n    }\n    if (msg.sender.balance < weiDripAmount) {\n      uint amountWEI = weiDripAmount.sub(msg.sender.balance);\n      weiBalance = weiBalance.sub(amountWEI);\n      msg.sender.transfer(amountWEI);\n    }\n    emit LogWithdraw(msg.sender, tokenAmount, amountWEI);\n    return true;\n  }\n\n  function changePass(bytes32 _newPass)\n  external\n  anyOwner\n  returns (bool) {\n    accessPass = _newPass;\n    return true;\n  }\n\n  function changeDripAmounts(uint _newAmountWEI, uint _newAmountMYB)\n  external\n  anyOwner\n  returns (bool) {\n    weiDripAmount = _newAmountWEI;\n    tokenDripAmount = _newAmountMYB;\n    return true;\n  }\n\n  function destroy()\n  external\n  anyOwner\n  returns (bool) {\n    require(token.transfer(msg.sender, weiBalance));\n    selfdestruct(msg.sender);\n    return true;\n  }\n  //------------------------------------------------------------------------------------------------------------------\n  //                               Modifiers\n  //------------------------------------------------------------------------------------------------------------------\n  modifier anyOwner {\n    require(database.boolStorage(keccak256(abi.encodePacked(\"owner\", msg.sender))));\n    _;\n  }\n\n\n\n  event LogWithdraw(address _sender, uint _amountToken, uint _amountWEI);\n  event LogTokenDeposited(address _depositer, uint _amount, bytes _data);\n  event LogEthDeposited(address _depositer, uint _amountWEI);\n}\n",
  "sourcePath": "/home/dog/code/mybit/faucet/contracts/TokenFaucet.sol",
  "compiler": {
    "name": "solc",
    "version": "0.4.24+commit.e67f0147.Emscripten.clang"
  },
  "schemaVersion": "2.0.1",
  "updatedAt": "2018-10-18T07:11:51.113Z"
}